{
	"If-else.sol": {
		"ifElse": {
			"abi": [
				{
					"inputs": [
						{
							"internalType": "int256",
							"name": "a",
							"type": "int256"
						}
					],
					"name": "check",
					"outputs": [
						{
							"internalType": "string",
							"name": "",
							"type": "string"
						}
					],
					"stateMutability": "pure",
					"type": "function"
				}
			],
			"devdoc": {
				"kind": "dev",
				"methods": {},
				"version": 1
			},
			"evm": {
				"assembly": "    /* \"If-else.sol\":65:453  contract ifElse\r... */\n  mstore(0x40, 0x80)\n  callvalue\n  dup1\n  iszero\n  tag_1\n  jumpi\n  0x00\n  dup1\n  revert\ntag_1:\n  pop\n  dataSize(sub_0)\n  dup1\n  dataOffset(sub_0)\n  0x00\n  codecopy\n  0x00\n  return\nstop\n\nsub_0: assembly {\n        /* \"If-else.sol\":65:453  contract ifElse\r... */\n      mstore(0x40, 0x80)\n      callvalue\n      dup1\n      iszero\n      tag_1\n      jumpi\n      0x00\n      dup1\n      revert\n    tag_1:\n      pop\n      jumpi(tag_2, lt(calldatasize, 0x04))\n      shr(0xe0, calldataload(0x00))\n      dup1\n      0x9943d669\n      eq\n      tag_3\n      jumpi\n    tag_2:\n      0x00\n      dup1\n      revert\n        /* \"If-else.sol\":89:450  function check(int a) public pure returns(string memory)\r... */\n    tag_3:\n      tag_4\n      0x04\n      dup1\n      calldatasize\n      sub\n      dup2\n      add\n      swap1\n      tag_5\n      swap2\n      swap1\n      tag_6\n      jump\t// in\n    tag_5:\n      tag_7\n      jump\t// in\n    tag_4:\n      mload(0x40)\n      tag_8\n      swap2\n      swap1\n      tag_9\n      jump\t// in\n    tag_8:\n      mload(0x40)\n      dup1\n      swap2\n      sub\n      swap1\n      return\n    tag_7:\n        /* \"If-else.sol\":131:144  string memory */\n      0x60\n        /* \"If-else.sol\":162:181  string memory value */\n      dup1\n        /* \"If-else.sol\":200:201  0 */\n      0x00\n        /* \"If-else.sol\":196:197  a */\n      dup4\n        /* \"If-else.sol\":196:201  a > 0 */\n      sgt\n        /* \"If-else.sol\":193:419  if(a > 0)\r... */\n      iszero\n      tag_11\n      jumpi\n        /* \"If-else.sol\":227:254  value = \"greater than zero\" */\n      mload(0x40)\n      dup1\n      0x40\n      add\n      0x40\n      mstore\n      dup1\n      0x11\n      dup2\n      mstore\n      0x20\n      add\n      0x67726561746572207468616e207a65726f000000000000000000000000000000\n      dup2\n      mstore\n      pop\n      swap1\n      pop\n        /* \"If-else.sol\":193:419  if(a > 0)\r... */\n      jump(tag_12)\n    tag_11:\n        /* \"If-else.sol\":290:291  0 */\n      0x00\n        /* \"If-else.sol\":285:286  a */\n      dup4\n        /* \"If-else.sol\":285:291  a == 0 */\n      eq\n        /* \"If-else.sol\":282:419  if(a == 0)\r... */\n      iszero\n      tag_13\n      jumpi\n        /* \"If-else.sol\":317:340  value = \"equal to zero\" */\n      mload(0x40)\n      dup1\n      0x40\n      add\n      0x40\n      mstore\n      dup1\n      0x0d\n      dup2\n      mstore\n      0x20\n      add\n      0x657175616c20746f207a65726f00000000000000000000000000000000000000\n      dup2\n      mstore\n      pop\n      swap1\n      pop\n        /* \"If-else.sol\":282:419  if(a == 0)\r... */\n      jump(tag_14)\n    tag_13:\n        /* \"If-else.sol\":382:406  value = \"less than zero\" */\n      mload(0x40)\n      dup1\n      0x40\n      add\n      0x40\n      mstore\n      dup1\n      0x0e\n      dup2\n      mstore\n      0x20\n      add\n      0x6c657373207468616e207a65726f000000000000000000000000000000000000\n      dup2\n      mstore\n      pop\n      swap1\n      pop\n        /* \"If-else.sol\":282:419  if(a == 0)\r... */\n    tag_14:\n        /* \"If-else.sol\":193:419  if(a > 0)\r... */\n    tag_12:\n        /* \"If-else.sol\":436:441  value */\n      dup1\n        /* \"If-else.sol\":429:441  return value */\n      swap2\n      pop\n      pop\n        /* \"If-else.sol\":89:450  function check(int a) public pure returns(string memory)\r... */\n      swap2\n      swap1\n      pop\n      jump\t// out\n        /* \"#utility.yul\":7:144   */\n    tag_16:\n      0x00\n        /* \"#utility.yul\":90:96   */\n      dup2\n        /* \"#utility.yul\":77:97   */\n      calldataload\n        /* \"#utility.yul\":68:97   */\n      swap1\n      pop\n        /* \"#utility.yul\":106:138   */\n      tag_18\n        /* \"#utility.yul\":132:137   */\n      dup2\n        /* \"#utility.yul\":106:138   */\n      tag_19\n      jump\t// in\n    tag_18:\n        /* \"#utility.yul\":58:144   */\n      swap3\n      swap2\n      pop\n      pop\n      jump\t// out\n        /* \"#utility.yul\":150:410   */\n    tag_6:\n      0x00\n        /* \"#utility.yul\":257:259   */\n      0x20\n        /* \"#utility.yul\":245:254   */\n      dup3\n        /* \"#utility.yul\":236:243   */\n      dup5\n        /* \"#utility.yul\":232:255   */\n      sub\n        /* \"#utility.yul\":228:260   */\n      slt\n        /* \"#utility.yul\":225:227   */\n      iszero\n      tag_21\n      jumpi\n        /* \"#utility.yul\":273:274   */\n      0x00\n        /* \"#utility.yul\":270:271   */\n      dup1\n        /* \"#utility.yul\":263:275   */\n      revert\n        /* \"#utility.yul\":225:227   */\n    tag_21:\n        /* \"#utility.yul\":316:317   */\n      0x00\n        /* \"#utility.yul\":341:393   */\n      tag_22\n        /* \"#utility.yul\":385:392   */\n      dup5\n        /* \"#utility.yul\":376:382   */\n      dup3\n        /* \"#utility.yul\":365:374   */\n      dup6\n        /* \"#utility.yul\":361:383   */\n      add\n        /* \"#utility.yul\":341:393   */\n      tag_16\n      jump\t// in\n    tag_22:\n        /* \"#utility.yul\":331:393   */\n      swap2\n      pop\n        /* \"#utility.yul\":287:403   */\n      pop\n        /* \"#utility.yul\":215:410   */\n      swap3\n      swap2\n      pop\n      pop\n      jump\t// out\n        /* \"#utility.yul\":416:780   */\n    tag_23:\n      0x00\n        /* \"#utility.yul\":532:571   */\n      tag_25\n        /* \"#utility.yul\":565:570   */\n      dup3\n        /* \"#utility.yul\":532:571   */\n      tag_26\n      jump\t// in\n    tag_25:\n        /* \"#utility.yul\":587:658   */\n      tag_27\n        /* \"#utility.yul\":651:657   */\n      dup2\n        /* \"#utility.yul\":646:649   */\n      dup6\n        /* \"#utility.yul\":587:658   */\n      tag_28\n      jump\t// in\n    tag_27:\n        /* \"#utility.yul\":580:658   */\n      swap4\n      pop\n        /* \"#utility.yul\":667:719   */\n      tag_29\n        /* \"#utility.yul\":712:718   */\n      dup2\n        /* \"#utility.yul\":707:710   */\n      dup6\n        /* \"#utility.yul\":700:704   */\n      0x20\n        /* \"#utility.yul\":693:698   */\n      dup7\n        /* \"#utility.yul\":689:705   */\n      add\n        /* \"#utility.yul\":667:719   */\n      tag_30\n      jump\t// in\n    tag_29:\n        /* \"#utility.yul\":744:773   */\n      tag_31\n        /* \"#utility.yul\":766:772   */\n      dup2\n        /* \"#utility.yul\":744:773   */\n      tag_32\n      jump\t// in\n    tag_31:\n        /* \"#utility.yul\":739:742   */\n      dup5\n        /* \"#utility.yul\":735:774   */\n      add\n        /* \"#utility.yul\":728:774   */\n      swap2\n      pop\n        /* \"#utility.yul\":508:780   */\n      pop\n      swap3\n      swap2\n      pop\n      pop\n      jump\t// out\n        /* \"#utility.yul\":786:1099   */\n    tag_9:\n      0x00\n        /* \"#utility.yul\":937:939   */\n      0x20\n        /* \"#utility.yul\":926:935   */\n      dup3\n        /* \"#utility.yul\":922:940   */\n      add\n        /* \"#utility.yul\":914:940   */\n      swap1\n      pop\n        /* \"#utility.yul\":986:995   */\n      dup2\n        /* \"#utility.yul\":980:984   */\n      dup2\n        /* \"#utility.yul\":976:996   */\n      sub\n        /* \"#utility.yul\":972:973   */\n      0x00\n        /* \"#utility.yul\":961:970   */\n      dup4\n        /* \"#utility.yul\":957:974   */\n      add\n        /* \"#utility.yul\":950:997   */\n      mstore\n        /* \"#utility.yul\":1014:1092   */\n      tag_34\n        /* \"#utility.yul\":1087:1091   */\n      dup2\n        /* \"#utility.yul\":1078:1084   */\n      dup5\n        /* \"#utility.yul\":1014:1092   */\n      tag_23\n      jump\t// in\n    tag_34:\n        /* \"#utility.yul\":1006:1092   */\n      swap1\n      pop\n        /* \"#utility.yul\":904:1099   */\n      swap3\n      swap2\n      pop\n      pop\n      jump\t// out\n        /* \"#utility.yul\":1105:1204   */\n    tag_26:\n      0x00\n        /* \"#utility.yul\":1191:1196   */\n      dup2\n        /* \"#utility.yul\":1185:1197   */\n      mload\n        /* \"#utility.yul\":1175:1197   */\n      swap1\n      pop\n        /* \"#utility.yul\":1164:1204   */\n      swap2\n      swap1\n      pop\n      jump\t// out\n        /* \"#utility.yul\":1210:1379   */\n    tag_28:\n      0x00\n        /* \"#utility.yul\":1328:1334   */\n      dup3\n        /* \"#utility.yul\":1323:1326   */\n      dup3\n        /* \"#utility.yul\":1316:1335   */\n      mstore\n        /* \"#utility.yul\":1368:1372   */\n      0x20\n        /* \"#utility.yul\":1363:1366   */\n      dup3\n        /* \"#utility.yul\":1359:1373   */\n      add\n        /* \"#utility.yul\":1344:1373   */\n      swap1\n      pop\n        /* \"#utility.yul\":1306:1379   */\n      swap3\n      swap2\n      pop\n      pop\n      jump\t// out\n        /* \"#utility.yul\":1385:1461   */\n    tag_37:\n      0x00\n        /* \"#utility.yul\":1450:1455   */\n      dup2\n        /* \"#utility.yul\":1439:1455   */\n      swap1\n      pop\n        /* \"#utility.yul\":1429:1461   */\n      swap2\n      swap1\n      pop\n      jump\t// out\n        /* \"#utility.yul\":1467:1774   */\n    tag_30:\n        /* \"#utility.yul\":1535:1536   */\n      0x00\n        /* \"#utility.yul\":1545:1658   */\n    tag_40:\n        /* \"#utility.yul\":1559:1565   */\n      dup4\n        /* \"#utility.yul\":1556:1557   */\n      dup2\n        /* \"#utility.yul\":1553:1566   */\n      lt\n        /* \"#utility.yul\":1545:1658   */\n      iszero\n      tag_42\n      jumpi\n        /* \"#utility.yul\":1644:1645   */\n      dup1\n        /* \"#utility.yul\":1639:1642   */\n      dup3\n        /* \"#utility.yul\":1635:1646   */\n      add\n        /* \"#utility.yul\":1629:1647   */\n      mload\n        /* \"#utility.yul\":1625:1626   */\n      dup2\n        /* \"#utility.yul\":1620:1623   */\n      dup5\n        /* \"#utility.yul\":1616:1627   */\n      add\n        /* \"#utility.yul\":1609:1648   */\n      mstore\n        /* \"#utility.yul\":1581:1583   */\n      0x20\n        /* \"#utility.yul\":1578:1579   */\n      dup2\n        /* \"#utility.yul\":1574:1584   */\n      add\n        /* \"#utility.yul\":1569:1584   */\n      swap1\n      pop\n        /* \"#utility.yul\":1545:1658   */\n      jump(tag_40)\n    tag_42:\n        /* \"#utility.yul\":1676:1682   */\n      dup4\n        /* \"#utility.yul\":1673:1674   */\n      dup2\n        /* \"#utility.yul\":1670:1683   */\n      gt\n        /* \"#utility.yul\":1667:1669   */\n      iszero\n      tag_43\n      jumpi\n        /* \"#utility.yul\":1756:1757   */\n      0x00\n        /* \"#utility.yul\":1747:1753   */\n      dup5\n        /* \"#utility.yul\":1742:1745   */\n      dup5\n        /* \"#utility.yul\":1738:1754   */\n      add\n        /* \"#utility.yul\":1731:1758   */\n      mstore\n        /* \"#utility.yul\":1667:1669   */\n    tag_43:\n        /* \"#utility.yul\":1516:1774   */\n      pop\n      pop\n      pop\n      pop\n      jump\t// out\n        /* \"#utility.yul\":1780:1882   */\n    tag_32:\n      0x00\n        /* \"#utility.yul\":1872:1874   */\n      0x1f\n        /* \"#utility.yul\":1868:1875   */\n      not\n        /* \"#utility.yul\":1863:1865   */\n      0x1f\n        /* \"#utility.yul\":1856:1861   */\n      dup4\n        /* \"#utility.yul\":1852:1866   */\n      add\n        /* \"#utility.yul\":1848:1876   */\n      and\n        /* \"#utility.yul\":1838:1876   */\n      swap1\n      pop\n        /* \"#utility.yul\":1828:1882   */\n      swap2\n      swap1\n      pop\n      jump\t// out\n        /* \"#utility.yul\":1888:2008   */\n    tag_19:\n        /* \"#utility.yul\":1960:1983   */\n      tag_46\n        /* \"#utility.yul\":1977:1982   */\n      dup2\n        /* \"#utility.yul\":1960:1983   */\n      tag_37\n      jump\t// in\n    tag_46:\n        /* \"#utility.yul\":1953:1958   */\n      dup2\n        /* \"#utility.yul\":1950:1984   */\n      eq\n        /* \"#utility.yul\":1940:1942   */\n      tag_47\n      jumpi\n        /* \"#utility.yul\":1998:1999   */\n      0x00\n        /* \"#utility.yul\":1995:1996   */\n      dup1\n        /* \"#utility.yul\":1988:2000   */\n      revert\n        /* \"#utility.yul\":1940:1942   */\n    tag_47:\n        /* \"#utility.yul\":1930:2008   */\n      pop\n      jump\t// out\n\n    auxdata: 0xa264697066735822122054d4387a84f26f7b767ede2c90e227c07fa94f6e9a4e94a8df8b8ad5eed8f26564736f6c63430008000033\n}\n",
				"bytecode": {
					"linkReferences": {},
					"object": "608060405234801561001057600080fd5b50610282806100206000396000f3fe608060405234801561001057600080fd5b506004361061002b5760003560e01c80639943d66914610030575b600080fd5b61004a60048036038101906100459190610147565b610060565b60405161005791906101a9565b60405180910390f35b60608060008313156100a9576040518060400160405280601181526020017f67726561746572207468616e207a65726f0000000000000000000000000000008152509050610129565b60008314156100ef576040518060400160405280600d81526020017f657175616c20746f207a65726f000000000000000000000000000000000000008152509050610128565b6040518060400160405280600e81526020017f6c657373207468616e207a65726f00000000000000000000000000000000000081525090505b5b80915050919050565b60008135905061014181610235565b92915050565b60006020828403121561015957600080fd5b600061016784828501610132565b91505092915050565b600061017b826101cb565b61018581856101d6565b93506101958185602086016101f1565b61019e81610224565b840191505092915050565b600060208201905081810360008301526101c38184610170565b905092915050565b600081519050919050565b600082825260208201905092915050565b6000819050919050565b60005b8381101561020f5780820151818401526020810190506101f4565b8381111561021e576000848401525b50505050565b6000601f19601f8301169050919050565b61023e816101e7565b811461024957600080fd5b5056fea264697066735822122054d4387a84f26f7b767ede2c90e227c07fa94f6e9a4e94a8df8b8ad5eed8f26564736f6c63430008000033",
					"opcodes": "PUSH1 0x80 PUSH1 0x40 MSTORE CALLVALUE DUP1 ISZERO PUSH2 0x10 JUMPI PUSH1 0x0 DUP1 REVERT JUMPDEST POP PUSH2 0x282 DUP1 PUSH2 0x20 PUSH1 0x0 CODECOPY PUSH1 0x0 RETURN INVALID PUSH1 0x80 PUSH1 0x40 MSTORE CALLVALUE DUP1 ISZERO PUSH2 0x10 JUMPI PUSH1 0x0 DUP1 REVERT JUMPDEST POP PUSH1 0x4 CALLDATASIZE LT PUSH2 0x2B JUMPI PUSH1 0x0 CALLDATALOAD PUSH1 0xE0 SHR DUP1 PUSH4 0x9943D669 EQ PUSH2 0x30 JUMPI JUMPDEST PUSH1 0x0 DUP1 REVERT JUMPDEST PUSH2 0x4A PUSH1 0x4 DUP1 CALLDATASIZE SUB DUP2 ADD SWAP1 PUSH2 0x45 SWAP2 SWAP1 PUSH2 0x147 JUMP JUMPDEST PUSH2 0x60 JUMP JUMPDEST PUSH1 0x40 MLOAD PUSH2 0x57 SWAP2 SWAP1 PUSH2 0x1A9 JUMP JUMPDEST PUSH1 0x40 MLOAD DUP1 SWAP2 SUB SWAP1 RETURN JUMPDEST PUSH1 0x60 DUP1 PUSH1 0x0 DUP4 SGT ISZERO PUSH2 0xA9 JUMPI PUSH1 0x40 MLOAD DUP1 PUSH1 0x40 ADD PUSH1 0x40 MSTORE DUP1 PUSH1 0x11 DUP2 MSTORE PUSH1 0x20 ADD PUSH32 0x67726561746572207468616E207A65726F000000000000000000000000000000 DUP2 MSTORE POP SWAP1 POP PUSH2 0x129 JUMP JUMPDEST PUSH1 0x0 DUP4 EQ ISZERO PUSH2 0xEF JUMPI PUSH1 0x40 MLOAD DUP1 PUSH1 0x40 ADD PUSH1 0x40 MSTORE DUP1 PUSH1 0xD DUP2 MSTORE PUSH1 0x20 ADD PUSH32 0x657175616C20746F207A65726F00000000000000000000000000000000000000 DUP2 MSTORE POP SWAP1 POP PUSH2 0x128 JUMP JUMPDEST PUSH1 0x40 MLOAD DUP1 PUSH1 0x40 ADD PUSH1 0x40 MSTORE DUP1 PUSH1 0xE DUP2 MSTORE PUSH1 0x20 ADD PUSH32 0x6C657373207468616E207A65726F000000000000000000000000000000000000 DUP2 MSTORE POP SWAP1 POP JUMPDEST JUMPDEST DUP1 SWAP2 POP POP SWAP2 SWAP1 POP JUMP JUMPDEST PUSH1 0x0 DUP2 CALLDATALOAD SWAP1 POP PUSH2 0x141 DUP2 PUSH2 0x235 JUMP JUMPDEST SWAP3 SWAP2 POP POP JUMP JUMPDEST PUSH1 0x0 PUSH1 0x20 DUP3 DUP5 SUB SLT ISZERO PUSH2 0x159 JUMPI PUSH1 0x0 DUP1 REVERT JUMPDEST PUSH1 0x0 PUSH2 0x167 DUP5 DUP3 DUP6 ADD PUSH2 0x132 JUMP JUMPDEST SWAP2 POP POP SWAP3 SWAP2 POP POP JUMP JUMPDEST PUSH1 0x0 PUSH2 0x17B DUP3 PUSH2 0x1CB JUMP JUMPDEST PUSH2 0x185 DUP2 DUP6 PUSH2 0x1D6 JUMP JUMPDEST SWAP4 POP PUSH2 0x195 DUP2 DUP6 PUSH1 0x20 DUP7 ADD PUSH2 0x1F1 JUMP JUMPDEST PUSH2 0x19E DUP2 PUSH2 0x224 JUMP JUMPDEST DUP5 ADD SWAP2 POP POP SWAP3 SWAP2 POP POP JUMP JUMPDEST PUSH1 0x0 PUSH1 0x20 DUP3 ADD SWAP1 POP DUP2 DUP2 SUB PUSH1 0x0 DUP4 ADD MSTORE PUSH2 0x1C3 DUP2 DUP5 PUSH2 0x170 JUMP JUMPDEST SWAP1 POP SWAP3 SWAP2 POP POP JUMP JUMPDEST PUSH1 0x0 DUP2 MLOAD SWAP1 POP SWAP2 SWAP1 POP JUMP JUMPDEST PUSH1 0x0 DUP3 DUP3 MSTORE PUSH1 0x20 DUP3 ADD SWAP1 POP SWAP3 SWAP2 POP POP JUMP JUMPDEST PUSH1 0x0 DUP2 SWAP1 POP SWAP2 SWAP1 POP JUMP JUMPDEST PUSH1 0x0 JUMPDEST DUP4 DUP2 LT ISZERO PUSH2 0x20F JUMPI DUP1 DUP3 ADD MLOAD DUP2 DUP5 ADD MSTORE PUSH1 0x20 DUP2 ADD SWAP1 POP PUSH2 0x1F4 JUMP JUMPDEST DUP4 DUP2 GT ISZERO PUSH2 0x21E JUMPI PUSH1 0x0 DUP5 DUP5 ADD MSTORE JUMPDEST POP POP POP POP JUMP JUMPDEST PUSH1 0x0 PUSH1 0x1F NOT PUSH1 0x1F DUP4 ADD AND SWAP1 POP SWAP2 SWAP1 POP JUMP JUMPDEST PUSH2 0x23E DUP2 PUSH2 0x1E7 JUMP JUMPDEST DUP2 EQ PUSH2 0x249 JUMPI PUSH1 0x0 DUP1 REVERT JUMPDEST POP JUMP INVALID LOG2 PUSH5 0x6970667358 0x22 SLT KECCAK256 SLOAD 0xD4 CODESIZE PUSH27 0x84F26F7B767EDE2C90E227C07FA94F6E9A4E94A8DF8B8AD5EED8F2 PUSH6 0x64736F6C6343 STOP ADDMOD STOP STOP CALLER "
				},
				"gasEstimates": {
					"creation": {
						"codeDepositCost": "128400",
						"executionCost": "177",
						"totalCost": "128577"
					},
					"external": {
						"check(int256)": "infinite"
					}
				},
				"methodIdentifiers": {
					"check(int256)": "9943d669"
				}
			},
			"storageLayout": {
				"storage": [],
				"types": null
			},
			"userdoc": {
				"kind": "user",
				"methods": {},
				"version": 1
			}
		}
	}
}