{
	"identity.sol": {
		"Identity": {
			"abi": [
				{
					"inputs": [],
					"stateMutability": "nonpayable",
					"type": "constructor"
				},
				{
					"inputs": [],
					"name": "age",
					"outputs": [
						{
							"internalType": "uint256",
							"name": "",
							"type": "uint256"
						}
					],
					"stateMutability": "view",
					"type": "function"
				},
				{
					"inputs": [],
					"name": "getAge",
					"outputs": [
						{
							"internalType": "uint256",
							"name": "",
							"type": "uint256"
						}
					],
					"stateMutability": "view",
					"type": "function"
				},
				{
					"inputs": [],
					"name": "getName",
					"outputs": [
						{
							"internalType": "string",
							"name": "",
							"type": "string"
						}
					],
					"stateMutability": "view",
					"type": "function"
				},
				{
					"inputs": [],
					"name": "name",
					"outputs": [
						{
							"internalType": "string",
							"name": "",
							"type": "string"
						}
					],
					"stateMutability": "view",
					"type": "function"
				},
				{
					"inputs": [],
					"name": "setAge",
					"outputs": [],
					"stateMutability": "nonpayable",
					"type": "function"
				}
			],
			"devdoc": {
				"kind": "dev",
				"methods": {},
				"version": 1
			},
			"evm": {
				"assembly": "    /* \"identity.sol\":64:453  contract Identity {\r... */\n  mstore(0x40, 0x80)\n    /* \"identity.sol\":141:206  constructor() {\r... */\n  callvalue\n  dup1\n  iszero\n  tag_1\n  jumpi\n  0x00\n  dup1\n  revert\ntag_1:\n  pop\n    /* \"identity.sol\":166:179  name = \"Ravi\" */\n  mload(0x40)\n  dup1\n  0x40\n  add\n  0x40\n  mstore\n  dup1\n  0x04\n  dup2\n  mstore\n  0x20\n  add\n  0x5261766900000000000000000000000000000000000000000000000000000000\n  dup2\n  mstore\n  pop\n    /* \"identity.sol\":166:170  name */\n  0x00\n    /* \"identity.sol\":166:179  name = \"Ravi\" */\n  swap1\n  dup1\n  mload\n  swap1\n  0x20\n  add\n  swap1\n  tag_4\n  swap3\n  swap2\n  swap1\n  tag_5\n  jump\t// in\ntag_4:\n  pop\n    /* \"identity.sol\":196:198  17 */\n  0x11\n    /* \"identity.sol\":190:193  age */\n  0x01\n    /* \"identity.sol\":190:198  age = 17 */\n  dup2\n  swap1\n  sstore\n  pop\n    /* \"identity.sol\":64:453  contract Identity {\r... */\n  jump(tag_6)\ntag_5:\n  dup3\n  dup1\n  sload\n  tag_7\n  swap1\n  tag_8\n  jump\t// in\ntag_7:\n  swap1\n  0x00\n  mstore\n  keccak256(0x00, 0x20)\n  swap1\n  0x1f\n  add\n  0x20\n  swap1\n  div\n  dup2\n  add\n  swap3\n  dup3\n  tag_10\n  jumpi\n  0x00\n  dup6\n  sstore\n  jump(tag_9)\ntag_10:\n  dup3\n  0x1f\n  lt\n  tag_11\n  jumpi\n  dup1\n  mload\n  not(0xff)\n  and\n  dup4\n  dup1\n  add\n  or\n  dup6\n  sstore\n  jump(tag_9)\ntag_11:\n  dup3\n  dup1\n  add\n  0x01\n  add\n  dup6\n  sstore\n  dup3\n  iszero\n  tag_9\n  jumpi\n  swap2\n  dup3\n  add\ntag_12:\n  dup3\n  dup2\n  gt\n  iszero\n  tag_13\n  jumpi\n  dup3\n  mload\n  dup3\n  sstore\n  swap2\n  0x20\n  add\n  swap2\n  swap1\n  0x01\n  add\n  swap1\n  jump(tag_12)\ntag_13:\ntag_9:\n  pop\n  swap1\n  pop\n  tag_14\n  swap2\n  swap1\n  tag_15\n  jump\t// in\ntag_14:\n  pop\n  swap1\n  jump\t// out\ntag_15:\ntag_16:\n  dup1\n  dup3\n  gt\n  iszero\n  tag_17\n  jumpi\n  0x00\n  dup2\n  0x00\n  swap1\n  sstore\n  pop\n  0x01\n  add\n  jump(tag_16)\ntag_17:\n  pop\n  swap1\n  jump\t// out\n    /* \"#utility.yul\":7:327   */\ntag_8:\n  0x00\n    /* \"#utility.yul\":88:89   */\n  0x02\n    /* \"#utility.yul\":82:86   */\n  dup3\n    /* \"#utility.yul\":78:90   */\n  div\n    /* \"#utility.yul\":68:90   */\n  swap1\n  pop\n    /* \"#utility.yul\":135:136   */\n  0x01\n    /* \"#utility.yul\":129:133   */\n  dup3\n    /* \"#utility.yul\":125:137   */\n  and\n    /* \"#utility.yul\":156:174   */\n  dup1\n    /* \"#utility.yul\":146:148   */\n  tag_20\n  jumpi\n    /* \"#utility.yul\":212:216   */\n  0x7f\n    /* \"#utility.yul\":204:210   */\n  dup3\n    /* \"#utility.yul\":200:217   */\n  and\n    /* \"#utility.yul\":190:217   */\n  swap2\n  pop\n    /* \"#utility.yul\":146:148   */\ntag_20:\n    /* \"#utility.yul\":274:276   */\n  0x20\n    /* \"#utility.yul\":266:272   */\n  dup3\n    /* \"#utility.yul\":263:277   */\n  lt\n    /* \"#utility.yul\":243:261   */\n  dup2\n    /* \"#utility.yul\":240:278   */\n  eq\n    /* \"#utility.yul\":237:239   */\n  iszero\n  tag_21\n  jumpi\n    /* \"#utility.yul\":293:311   */\n  tag_22\n  tag_23\n  jump\t// in\ntag_22:\n    /* \"#utility.yul\":237:239   */\ntag_21:\n    /* \"#utility.yul\":58:327   */\n  pop\n  swap2\n  swap1\n  pop\n  jump\t// out\n    /* \"#utility.yul\":333:513   */\ntag_23:\n    /* \"#utility.yul\":381:458   */\n  0x4e487b7100000000000000000000000000000000000000000000000000000000\n    /* \"#utility.yul\":378:379   */\n  0x00\n    /* \"#utility.yul\":371:459   */\n  mstore\n    /* \"#utility.yul\":478:482   */\n  0x22\n    /* \"#utility.yul\":475:476   */\n  0x04\n    /* \"#utility.yul\":468:483   */\n  mstore\n    /* \"#utility.yul\":502:506   */\n  0x24\n    /* \"#utility.yul\":499:500   */\n  0x00\n    /* \"#utility.yul\":492:507   */\n  revert\n    /* \"identity.sol\":64:453  contract Identity {\r... */\ntag_6:\n  dataSize(sub_0)\n  dup1\n  dataOffset(sub_0)\n  0x00\n  codecopy\n  0x00\n  return\nstop\n\nsub_0: assembly {\n        /* \"identity.sol\":64:453  contract Identity {\r... */\n      mstore(0x40, 0x80)\n      callvalue\n      dup1\n      iszero\n      tag_1\n      jumpi\n      0x00\n      dup1\n      revert\n    tag_1:\n      pop\n      jumpi(tag_2, lt(calldatasize, 0x04))\n      shr(0xe0, calldataload(0x00))\n      dup1\n      0x06fdde03\n      eq\n      tag_3\n      jumpi\n      dup1\n      0x17d7de7c\n      eq\n      tag_4\n      jumpi\n      dup1\n      0x262a9dff\n      eq\n      tag_5\n      jumpi\n      dup1\n      0x457676ee\n      eq\n      tag_6\n      jumpi\n      dup1\n      0x967e6e65\n      eq\n      tag_7\n      jumpi\n    tag_2:\n      0x00\n      dup1\n      revert\n        /* \"identity.sol\":89:107  string public name */\n    tag_3:\n      tag_8\n      tag_9\n      jump\t// in\n    tag_8:\n      mload(0x40)\n      tag_10\n      swap2\n      swap1\n      tag_11\n      jump\t// in\n    tag_10:\n      mload(0x40)\n      dup1\n      swap2\n      sub\n      swap1\n      return\n        /* \"identity.sol\":214:299  function getName() public view returns (string memory) {\r... */\n    tag_4:\n      tag_12\n      tag_13\n      jump\t// in\n    tag_12:\n      mload(0x40)\n      tag_14\n      swap2\n      swap1\n      tag_11\n      jump\t// in\n    tag_14:\n      mload(0x40)\n      dup1\n      swap2\n      sub\n      swap1\n      return\n        /* \"identity.sol\":114:132  uint256 public age */\n    tag_5:\n      tag_15\n      tag_16\n      jump\t// in\n    tag_15:\n      mload(0x40)\n      tag_17\n      swap2\n      swap1\n      tag_18\n      jump\t// in\n    tag_17:\n      mload(0x40)\n      dup1\n      swap2\n      sub\n      swap1\n      return\n        /* \"identity.sol\":392:450  function setAge() public {\r... */\n    tag_6:\n      tag_19\n      tag_20\n      jump\t// in\n    tag_19:\n      stop\n        /* \"identity.sol\":307:384  function getAge() public view returns (uint256) {\r... */\n    tag_7:\n      tag_21\n      tag_22\n      jump\t// in\n    tag_21:\n      mload(0x40)\n      tag_23\n      swap2\n      swap1\n      tag_18\n      jump\t// in\n    tag_23:\n      mload(0x40)\n      dup1\n      swap2\n      sub\n      swap1\n      return\n        /* \"identity.sol\":89:107  string public name */\n    tag_9:\n      0x00\n      dup1\n      sload\n      tag_24\n      swap1\n      tag_25\n      jump\t// in\n    tag_24:\n      dup1\n      0x1f\n      add\n      0x20\n      dup1\n      swap2\n      div\n      mul\n      0x20\n      add\n      mload(0x40)\n      swap1\n      dup2\n      add\n      0x40\n      mstore\n      dup1\n      swap3\n      swap2\n      swap1\n      dup2\n      dup2\n      mstore\n      0x20\n      add\n      dup3\n      dup1\n      sload\n      tag_26\n      swap1\n      tag_25\n      jump\t// in\n    tag_26:\n      dup1\n      iszero\n      tag_27\n      jumpi\n      dup1\n      0x1f\n      lt\n      tag_28\n      jumpi\n      0x0100\n      dup1\n      dup4\n      sload\n      div\n      mul\n      dup4\n      mstore\n      swap2\n      0x20\n      add\n      swap2\n      jump(tag_27)\n    tag_28:\n      dup3\n      add\n      swap2\n      swap1\n      0x00\n      mstore\n      keccak256(0x00, 0x20)\n      swap1\n    tag_29:\n      dup2\n      sload\n      dup2\n      mstore\n      swap1\n      0x01\n      add\n      swap1\n      0x20\n      add\n      dup1\n      dup4\n      gt\n      tag_29\n      jumpi\n      dup3\n      swap1\n      sub\n      0x1f\n      and\n      dup3\n      add\n      swap2\n    tag_27:\n      pop\n      pop\n      pop\n      pop\n      pop\n      dup2\n      jump\t// out\n        /* \"identity.sol\":214:299  function getName() public view returns (string memory) {\r... */\n    tag_13:\n        /* \"identity.sol\":254:267  string memory */\n      0x60\n        /* \"identity.sol\":287:291  name */\n      0x00\n        /* \"identity.sol\":280:291  return name */\n      dup1\n      sload\n      tag_31\n      swap1\n      tag_25\n      jump\t// in\n    tag_31:\n      dup1\n      0x1f\n      add\n      0x20\n      dup1\n      swap2\n      div\n      mul\n      0x20\n      add\n      mload(0x40)\n      swap1\n      dup2\n      add\n      0x40\n      mstore\n      dup1\n      swap3\n      swap2\n      swap1\n      dup2\n      dup2\n      mstore\n      0x20\n      add\n      dup3\n      dup1\n      sload\n      tag_32\n      swap1\n      tag_25\n      jump\t// in\n    tag_32:\n      dup1\n      iszero\n      tag_33\n      jumpi\n      dup1\n      0x1f\n      lt\n      tag_34\n      jumpi\n      0x0100\n      dup1\n      dup4\n      sload\n      div\n      mul\n      dup4\n      mstore\n      swap2\n      0x20\n      add\n      swap2\n      jump(tag_33)\n    tag_34:\n      dup3\n      add\n      swap2\n      swap1\n      0x00\n      mstore\n      keccak256(0x00, 0x20)\n      swap1\n    tag_35:\n      dup2\n      sload\n      dup2\n      mstore\n      swap1\n      0x01\n      add\n      swap1\n      0x20\n      add\n      dup1\n      dup4\n      gt\n      tag_35\n      jumpi\n      dup3\n      swap1\n      sub\n      0x1f\n      and\n      dup3\n      add\n      swap2\n    tag_33:\n      pop\n      pop\n      pop\n      pop\n      pop\n      swap1\n      pop\n        /* \"identity.sol\":214:299  function getName() public view returns (string memory) {\r... */\n      swap1\n      jump\t// out\n        /* \"identity.sol\":114:132  uint256 public age */\n    tag_16:\n      sload(0x01)\n      dup2\n      jump\t// out\n        /* \"identity.sol\":392:450  function setAge() public {\r... */\n    tag_20:\n        /* \"identity.sol\":440:441  1 */\n      0x01\n        /* \"identity.sol\":434:437  age */\n      dup1\n      sload\n        /* \"identity.sol\":434:441  age + 1 */\n      tag_37\n      swap2\n      swap1\n      tag_38\n      jump\t// in\n    tag_37:\n        /* \"identity.sol\":428:431  age */\n      0x01\n        /* \"identity.sol\":428:441  age = age + 1 */\n      dup2\n      swap1\n      sstore\n      pop\n        /* \"identity.sol\":392:450  function setAge() public {\r... */\n      jump\t// out\n        /* \"identity.sol\":307:384  function getAge() public view returns (uint256) {\r... */\n    tag_22:\n        /* \"identity.sol\":346:353  uint256 */\n      0x00\n        /* \"identity.sol\":373:376  age */\n      sload(0x01)\n        /* \"identity.sol\":366:376  return age */\n      swap1\n      pop\n        /* \"identity.sol\":307:384  function getAge() public view returns (uint256) {\r... */\n      swap1\n      jump\t// out\n        /* \"#utility.yul\":7:371   */\n    tag_41:\n      0x00\n        /* \"#utility.yul\":123:162   */\n      tag_43\n        /* \"#utility.yul\":156:161   */\n      dup3\n        /* \"#utility.yul\":123:162   */\n      tag_44\n      jump\t// in\n    tag_43:\n        /* \"#utility.yul\":178:249   */\n      tag_45\n        /* \"#utility.yul\":242:248   */\n      dup2\n        /* \"#utility.yul\":237:240   */\n      dup6\n        /* \"#utility.yul\":178:249   */\n      tag_46\n      jump\t// in\n    tag_45:\n        /* \"#utility.yul\":171:249   */\n      swap4\n      pop\n        /* \"#utility.yul\":258:310   */\n      tag_47\n        /* \"#utility.yul\":303:309   */\n      dup2\n        /* \"#utility.yul\":298:301   */\n      dup6\n        /* \"#utility.yul\":291:295   */\n      0x20\n        /* \"#utility.yul\":284:289   */\n      dup7\n        /* \"#utility.yul\":280:296   */\n      add\n        /* \"#utility.yul\":258:310   */\n      tag_48\n      jump\t// in\n    tag_47:\n        /* \"#utility.yul\":335:364   */\n      tag_49\n        /* \"#utility.yul\":357:363   */\n      dup2\n        /* \"#utility.yul\":335:364   */\n      tag_50\n      jump\t// in\n    tag_49:\n        /* \"#utility.yul\":330:333   */\n      dup5\n        /* \"#utility.yul\":326:365   */\n      add\n        /* \"#utility.yul\":319:365   */\n      swap2\n      pop\n        /* \"#utility.yul\":99:371   */\n      pop\n      swap3\n      swap2\n      pop\n      pop\n      jump\t// out\n        /* \"#utility.yul\":377:495   */\n    tag_51:\n        /* \"#utility.yul\":464:488   */\n      tag_53\n        /* \"#utility.yul\":482:487   */\n      dup2\n        /* \"#utility.yul\":464:488   */\n      tag_54\n      jump\t// in\n    tag_53:\n        /* \"#utility.yul\":459:462   */\n      dup3\n        /* \"#utility.yul\":452:489   */\n      mstore\n        /* \"#utility.yul\":442:495   */\n      pop\n      pop\n      jump\t// out\n        /* \"#utility.yul\":501:814   */\n    tag_11:\n      0x00\n        /* \"#utility.yul\":652:654   */\n      0x20\n        /* \"#utility.yul\":641:650   */\n      dup3\n        /* \"#utility.yul\":637:655   */\n      add\n        /* \"#utility.yul\":629:655   */\n      swap1\n      pop\n        /* \"#utility.yul\":701:710   */\n      dup2\n        /* \"#utility.yul\":695:699   */\n      dup2\n        /* \"#utility.yul\":691:711   */\n      sub\n        /* \"#utility.yul\":687:688   */\n      0x00\n        /* \"#utility.yul\":676:685   */\n      dup4\n        /* \"#utility.yul\":672:689   */\n      add\n        /* \"#utility.yul\":665:712   */\n      mstore\n        /* \"#utility.yul\":729:807   */\n      tag_56\n        /* \"#utility.yul\":802:806   */\n      dup2\n        /* \"#utility.yul\":793:799   */\n      dup5\n        /* \"#utility.yul\":729:807   */\n      tag_41\n      jump\t// in\n    tag_56:\n        /* \"#utility.yul\":721:807   */\n      swap1\n      pop\n        /* \"#utility.yul\":619:814   */\n      swap3\n      swap2\n      pop\n      pop\n      jump\t// out\n        /* \"#utility.yul\":820:1042   */\n    tag_18:\n      0x00\n        /* \"#utility.yul\":951:953   */\n      0x20\n        /* \"#utility.yul\":940:949   */\n      dup3\n        /* \"#utility.yul\":936:954   */\n      add\n        /* \"#utility.yul\":928:954   */\n      swap1\n      pop\n        /* \"#utility.yul\":964:1035   */\n      tag_58\n        /* \"#utility.yul\":1032:1033   */\n      0x00\n        /* \"#utility.yul\":1021:1030   */\n      dup4\n        /* \"#utility.yul\":1017:1034   */\n      add\n        /* \"#utility.yul\":1008:1014   */\n      dup5\n        /* \"#utility.yul\":964:1035   */\n      tag_51\n      jump\t// in\n    tag_58:\n        /* \"#utility.yul\":918:1042   */\n      swap3\n      swap2\n      pop\n      pop\n      jump\t// out\n        /* \"#utility.yul\":1048:1147   */\n    tag_44:\n      0x00\n        /* \"#utility.yul\":1134:1139   */\n      dup2\n        /* \"#utility.yul\":1128:1140   */\n      mload\n        /* \"#utility.yul\":1118:1140   */\n      swap1\n      pop\n        /* \"#utility.yul\":1107:1147   */\n      swap2\n      swap1\n      pop\n      jump\t// out\n        /* \"#utility.yul\":1153:1322   */\n    tag_46:\n      0x00\n        /* \"#utility.yul\":1271:1277   */\n      dup3\n        /* \"#utility.yul\":1266:1269   */\n      dup3\n        /* \"#utility.yul\":1259:1278   */\n      mstore\n        /* \"#utility.yul\":1311:1315   */\n      0x20\n        /* \"#utility.yul\":1306:1309   */\n      dup3\n        /* \"#utility.yul\":1302:1316   */\n      add\n        /* \"#utility.yul\":1287:1316   */\n      swap1\n      pop\n        /* \"#utility.yul\":1249:1322   */\n      swap3\n      swap2\n      pop\n      pop\n      jump\t// out\n        /* \"#utility.yul\":1328:1633   */\n    tag_38:\n      0x00\n        /* \"#utility.yul\":1387:1407   */\n      tag_62\n        /* \"#utility.yul\":1405:1406   */\n      dup3\n        /* \"#utility.yul\":1387:1407   */\n      tag_54\n      jump\t// in\n    tag_62:\n        /* \"#utility.yul\":1382:1407   */\n      swap2\n      pop\n        /* \"#utility.yul\":1421:1441   */\n      tag_63\n        /* \"#utility.yul\":1439:1440   */\n      dup4\n        /* \"#utility.yul\":1421:1441   */\n      tag_54\n      jump\t// in\n    tag_63:\n        /* \"#utility.yul\":1416:1441   */\n      swap3\n      pop\n        /* \"#utility.yul\":1575:1576   */\n      dup3\n        /* \"#utility.yul\":1507:1573   */\n      0xffffffffffffffffffffffffffffffffffffffffffffffffffffffffffffffff\n        /* \"#utility.yul\":1503:1577   */\n      sub\n        /* \"#utility.yul\":1500:1501   */\n      dup3\n        /* \"#utility.yul\":1497:1578   */\n      gt\n        /* \"#utility.yul\":1494:1496   */\n      iszero\n      tag_64\n      jumpi\n        /* \"#utility.yul\":1581:1599   */\n      tag_65\n      tag_66\n      jump\t// in\n    tag_65:\n        /* \"#utility.yul\":1494:1496   */\n    tag_64:\n        /* \"#utility.yul\":1625:1626   */\n      dup3\n        /* \"#utility.yul\":1622:1623   */\n      dup3\n        /* \"#utility.yul\":1618:1627   */\n      add\n        /* \"#utility.yul\":1611:1627   */\n      swap1\n      pop\n        /* \"#utility.yul\":1372:1633   */\n      swap3\n      swap2\n      pop\n      pop\n      jump\t// out\n        /* \"#utility.yul\":1639:1716   */\n    tag_54:\n      0x00\n        /* \"#utility.yul\":1705:1710   */\n      dup2\n        /* \"#utility.yul\":1694:1710   */\n      swap1\n      pop\n        /* \"#utility.yul\":1684:1716   */\n      swap2\n      swap1\n      pop\n      jump\t// out\n        /* \"#utility.yul\":1722:2029   */\n    tag_48:\n        /* \"#utility.yul\":1790:1791   */\n      0x00\n        /* \"#utility.yul\":1800:1913   */\n    tag_69:\n        /* \"#utility.yul\":1814:1820   */\n      dup4\n        /* \"#utility.yul\":1811:1812   */\n      dup2\n        /* \"#utility.yul\":1808:1821   */\n      lt\n        /* \"#utility.yul\":1800:1913   */\n      iszero\n      tag_71\n      jumpi\n        /* \"#utility.yul\":1899:1900   */\n      dup1\n        /* \"#utility.yul\":1894:1897   */\n      dup3\n        /* \"#utility.yul\":1890:1901   */\n      add\n        /* \"#utility.yul\":1884:1902   */\n      mload\n        /* \"#utility.yul\":1880:1881   */\n      dup2\n        /* \"#utility.yul\":1875:1878   */\n      dup5\n        /* \"#utility.yul\":1871:1882   */\n      add\n        /* \"#utility.yul\":1864:1903   */\n      mstore\n        /* \"#utility.yul\":1836:1838   */\n      0x20\n        /* \"#utility.yul\":1833:1834   */\n      dup2\n        /* \"#utility.yul\":1829:1839   */\n      add\n        /* \"#utility.yul\":1824:1839   */\n      swap1\n      pop\n        /* \"#utility.yul\":1800:1913   */\n      jump(tag_69)\n    tag_71:\n        /* \"#utility.yul\":1931:1937   */\n      dup4\n        /* \"#utility.yul\":1928:1929   */\n      dup2\n        /* \"#utility.yul\":1925:1938   */\n      gt\n        /* \"#utility.yul\":1922:1924   */\n      iszero\n      tag_72\n      jumpi\n        /* \"#utility.yul\":2011:2012   */\n      0x00\n        /* \"#utility.yul\":2002:2008   */\n      dup5\n        /* \"#utility.yul\":1997:2000   */\n      dup5\n        /* \"#utility.yul\":1993:2009   */\n      add\n        /* \"#utility.yul\":1986:2013   */\n      mstore\n        /* \"#utility.yul\":1922:1924   */\n    tag_72:\n        /* \"#utility.yul\":1771:2029   */\n      pop\n      pop\n      pop\n      pop\n      jump\t// out\n        /* \"#utility.yul\":2035:2355   */\n    tag_25:\n      0x00\n        /* \"#utility.yul\":2116:2117   */\n      0x02\n        /* \"#utility.yul\":2110:2114   */\n      dup3\n        /* \"#utility.yul\":2106:2118   */\n      div\n        /* \"#utility.yul\":2096:2118   */\n      swap1\n      pop\n        /* \"#utility.yul\":2163:2164   */\n      0x01\n        /* \"#utility.yul\":2157:2161   */\n      dup3\n        /* \"#utility.yul\":2153:2165   */\n      and\n        /* \"#utility.yul\":2184:2202   */\n      dup1\n        /* \"#utility.yul\":2174:2176   */\n      tag_74\n      jumpi\n        /* \"#utility.yul\":2240:2244   */\n      0x7f\n        /* \"#utility.yul\":2232:2238   */\n      dup3\n        /* \"#utility.yul\":2228:2245   */\n      and\n        /* \"#utility.yul\":2218:2245   */\n      swap2\n      pop\n        /* \"#utility.yul\":2174:2176   */\n    tag_74:\n        /* \"#utility.yul\":2302:2304   */\n      0x20\n        /* \"#utility.yul\":2294:2300   */\n      dup3\n        /* \"#utility.yul\":2291:2305   */\n      lt\n        /* \"#utility.yul\":2271:2289   */\n      dup2\n        /* \"#utility.yul\":2268:2306   */\n      eq\n        /* \"#utility.yul\":2265:2267   */\n      iszero\n      tag_75\n      jumpi\n        /* \"#utility.yul\":2321:2339   */\n      tag_76\n      tag_77\n      jump\t// in\n    tag_76:\n        /* \"#utility.yul\":2265:2267   */\n    tag_75:\n        /* \"#utility.yul\":2086:2355   */\n      pop\n      swap2\n      swap1\n      pop\n      jump\t// out\n        /* \"#utility.yul\":2361:2541   */\n    tag_66:\n        /* \"#utility.yul\":2409:2486   */\n      0x4e487b7100000000000000000000000000000000000000000000000000000000\n        /* \"#utility.yul\":2406:2407   */\n      0x00\n        /* \"#utility.yul\":2399:2487   */\n      mstore\n        /* \"#utility.yul\":2506:2510   */\n      0x11\n        /* \"#utility.yul\":2503:2504   */\n      0x04\n        /* \"#utility.yul\":2496:2511   */\n      mstore\n        /* \"#utility.yul\":2530:2534   */\n      0x24\n        /* \"#utility.yul\":2527:2528   */\n      0x00\n        /* \"#utility.yul\":2520:2535   */\n      revert\n        /* \"#utility.yul\":2547:2727   */\n    tag_77:\n        /* \"#utility.yul\":2595:2672   */\n      0x4e487b7100000000000000000000000000000000000000000000000000000000\n        /* \"#utility.yul\":2592:2593   */\n      0x00\n        /* \"#utility.yul\":2585:2673   */\n      mstore\n        /* \"#utility.yul\":2692:2696   */\n      0x22\n        /* \"#utility.yul\":2689:2690   */\n      0x04\n        /* \"#utility.yul\":2682:2697   */\n      mstore\n        /* \"#utility.yul\":2716:2720   */\n      0x24\n        /* \"#utility.yul\":2713:2714   */\n      0x00\n        /* \"#utility.yul\":2706:2721   */\n      revert\n        /* \"#utility.yul\":2733:2835   */\n    tag_50:\n      0x00\n        /* \"#utility.yul\":2825:2827   */\n      0x1f\n        /* \"#utility.yul\":2821:2828   */\n      not\n        /* \"#utility.yul\":2816:2818   */\n      0x1f\n        /* \"#utility.yul\":2809:2814   */\n      dup4\n        /* \"#utility.yul\":2805:2819   */\n      add\n        /* \"#utility.yul\":2801:2829   */\n      and\n        /* \"#utility.yul\":2791:2829   */\n      swap1\n      pop\n        /* \"#utility.yul\":2781:2835   */\n      swap2\n      swap1\n      pop\n      jump\t// out\n\n    auxdata: 0xa2646970667358221220132bb2f595101a46e3381f82d6647f9a375b9810112ce2a6a5cf0b93edcf789864736f6c63430008000033\n}\n",
				"bytecode": {
					"linkReferences": {},
					"object": "608060405234801561001057600080fd5b506040518060400160405280600481526020017f52617669000000000000000000000000000000000000000000000000000000008152506000908051906020019061005c92919061006a565b50601160018190555061016e565b8280546100769061010d565b90600052602060002090601f01602090048101928261009857600085556100df565b82601f106100b157805160ff19168380011785556100df565b828001600101855582156100df579182015b828111156100de5782518255916020019190600101906100c3565b5b5090506100ec91906100f0565b5090565b5b808211156101095760008160009055506001016100f1565b5090565b6000600282049050600182168061012557607f821691505b602082108114156101395761013861013f565b5b50919050565b7f4e487b7100000000000000000000000000000000000000000000000000000000600052602260045260246000fd5b61042f8061017d6000396000f3fe608060405234801561001057600080fd5b50600436106100575760003560e01c806306fdde031461005c57806317d7de7c1461007a578063262a9dff14610098578063457676ee146100b6578063967e6e65146100c0575b600080fd5b6100646100de565b604051610071919061026c565b60405180910390f35b61008261016c565b60405161008f919061026c565b60405180910390f35b6100a06101fe565b6040516100ad919061028e565b60405180910390f35b6100be610204565b005b6100c861021a565b6040516100d5919061028e565b60405180910390f35b600080546100eb90610358565b80601f016020809104026020016040519081016040528092919081815260200182805461011790610358565b80156101645780601f1061013957610100808354040283529160200191610164565b820191906000526020600020905b81548152906001019060200180831161014757829003601f168201915b505050505081565b60606000805461017b90610358565b80601f01602080910402602001604051908101604052809291908181526020018280546101a790610358565b80156101f45780601f106101c9576101008083540402835291602001916101f4565b820191906000526020600020905b8154815290600101906020018083116101d757829003601f168201915b5050505050905090565b60015481565b6001805461021291906102c5565b600181905550565b6000600154905090565b600061022f826102a9565b61023981856102b4565b9350610249818560208601610325565b610252816103e8565b840191505092915050565b6102668161031b565b82525050565b600060208201905081810360008301526102868184610224565b905092915050565b60006020820190506102a3600083018461025d565b92915050565b600081519050919050565b600082825260208201905092915050565b60006102d08261031b565b91506102db8361031b565b9250827fffffffffffffffffffffffffffffffffffffffffffffffffffffffffffffffff038211156103105761030f61038a565b5b828201905092915050565b6000819050919050565b60005b83811015610343578082015181840152602081019050610328565b83811115610352576000848401525b50505050565b6000600282049050600182168061037057607f821691505b60208210811415610384576103836103b9565b5b50919050565b7f4e487b7100000000000000000000000000000000000000000000000000000000600052601160045260246000fd5b7f4e487b7100000000000000000000000000000000000000000000000000000000600052602260045260246000fd5b6000601f19601f830116905091905056fea2646970667358221220132bb2f595101a46e3381f82d6647f9a375b9810112ce2a6a5cf0b93edcf789864736f6c63430008000033",
					"opcodes": "PUSH1 0x80 PUSH1 0x40 MSTORE CALLVALUE DUP1 ISZERO PUSH2 0x10 JUMPI PUSH1 0x0 DUP1 REVERT JUMPDEST POP PUSH1 0x40 MLOAD DUP1 PUSH1 0x40 ADD PUSH1 0x40 MSTORE DUP1 PUSH1 0x4 DUP2 MSTORE PUSH1 0x20 ADD PUSH32 0x5261766900000000000000000000000000000000000000000000000000000000 DUP2 MSTORE POP PUSH1 0x0 SWAP1 DUP1 MLOAD SWAP1 PUSH1 0x20 ADD SWAP1 PUSH2 0x5C SWAP3 SWAP2 SWAP1 PUSH2 0x6A JUMP JUMPDEST POP PUSH1 0x11 PUSH1 0x1 DUP2 SWAP1 SSTORE POP PUSH2 0x16E JUMP JUMPDEST DUP3 DUP1 SLOAD PUSH2 0x76 SWAP1 PUSH2 0x10D JUMP JUMPDEST SWAP1 PUSH1 0x0 MSTORE PUSH1 0x20 PUSH1 0x0 KECCAK256 SWAP1 PUSH1 0x1F ADD PUSH1 0x20 SWAP1 DIV DUP2 ADD SWAP3 DUP3 PUSH2 0x98 JUMPI PUSH1 0x0 DUP6 SSTORE PUSH2 0xDF JUMP JUMPDEST DUP3 PUSH1 0x1F LT PUSH2 0xB1 JUMPI DUP1 MLOAD PUSH1 0xFF NOT AND DUP4 DUP1 ADD OR DUP6 SSTORE PUSH2 0xDF JUMP JUMPDEST DUP3 DUP1 ADD PUSH1 0x1 ADD DUP6 SSTORE DUP3 ISZERO PUSH2 0xDF JUMPI SWAP2 DUP3 ADD JUMPDEST DUP3 DUP2 GT ISZERO PUSH2 0xDE JUMPI DUP3 MLOAD DUP3 SSTORE SWAP2 PUSH1 0x20 ADD SWAP2 SWAP1 PUSH1 0x1 ADD SWAP1 PUSH2 0xC3 JUMP JUMPDEST JUMPDEST POP SWAP1 POP PUSH2 0xEC SWAP2 SWAP1 PUSH2 0xF0 JUMP JUMPDEST POP SWAP1 JUMP JUMPDEST JUMPDEST DUP1 DUP3 GT ISZERO PUSH2 0x109 JUMPI PUSH1 0x0 DUP2 PUSH1 0x0 SWAP1 SSTORE POP PUSH1 0x1 ADD PUSH2 0xF1 JUMP JUMPDEST POP SWAP1 JUMP JUMPDEST PUSH1 0x0 PUSH1 0x2 DUP3 DIV SWAP1 POP PUSH1 0x1 DUP3 AND DUP1 PUSH2 0x125 JUMPI PUSH1 0x7F DUP3 AND SWAP2 POP JUMPDEST PUSH1 0x20 DUP3 LT DUP2 EQ ISZERO PUSH2 0x139 JUMPI PUSH2 0x138 PUSH2 0x13F JUMP JUMPDEST JUMPDEST POP SWAP2 SWAP1 POP JUMP JUMPDEST PUSH32 0x4E487B7100000000000000000000000000000000000000000000000000000000 PUSH1 0x0 MSTORE PUSH1 0x22 PUSH1 0x4 MSTORE PUSH1 0x24 PUSH1 0x0 REVERT JUMPDEST PUSH2 0x42F DUP1 PUSH2 0x17D PUSH1 0x0 CODECOPY PUSH1 0x0 RETURN INVALID PUSH1 0x80 PUSH1 0x40 MSTORE CALLVALUE DUP1 ISZERO PUSH2 0x10 JUMPI PUSH1 0x0 DUP1 REVERT JUMPDEST POP PUSH1 0x4 CALLDATASIZE LT PUSH2 0x57 JUMPI PUSH1 0x0 CALLDATALOAD PUSH1 0xE0 SHR DUP1 PUSH4 0x6FDDE03 EQ PUSH2 0x5C JUMPI DUP1 PUSH4 0x17D7DE7C EQ PUSH2 0x7A JUMPI DUP1 PUSH4 0x262A9DFF EQ PUSH2 0x98 JUMPI DUP1 PUSH4 0x457676EE EQ PUSH2 0xB6 JUMPI DUP1 PUSH4 0x967E6E65 EQ PUSH2 0xC0 JUMPI JUMPDEST PUSH1 0x0 DUP1 REVERT JUMPDEST PUSH2 0x64 PUSH2 0xDE JUMP JUMPDEST PUSH1 0x40 MLOAD PUSH2 0x71 SWAP2 SWAP1 PUSH2 0x26C JUMP JUMPDEST PUSH1 0x40 MLOAD DUP1 SWAP2 SUB SWAP1 RETURN JUMPDEST PUSH2 0x82 PUSH2 0x16C JUMP JUMPDEST PUSH1 0x40 MLOAD PUSH2 0x8F SWAP2 SWAP1 PUSH2 0x26C JUMP JUMPDEST PUSH1 0x40 MLOAD DUP1 SWAP2 SUB SWAP1 RETURN JUMPDEST PUSH2 0xA0 PUSH2 0x1FE JUMP JUMPDEST PUSH1 0x40 MLOAD PUSH2 0xAD SWAP2 SWAP1 PUSH2 0x28E JUMP JUMPDEST PUSH1 0x40 MLOAD DUP1 SWAP2 SUB SWAP1 RETURN JUMPDEST PUSH2 0xBE PUSH2 0x204 JUMP JUMPDEST STOP JUMPDEST PUSH2 0xC8 PUSH2 0x21A JUMP JUMPDEST PUSH1 0x40 MLOAD PUSH2 0xD5 SWAP2 SWAP1 PUSH2 0x28E JUMP JUMPDEST PUSH1 0x40 MLOAD DUP1 SWAP2 SUB SWAP1 RETURN JUMPDEST PUSH1 0x0 DUP1 SLOAD PUSH2 0xEB SWAP1 PUSH2 0x358 JUMP JUMPDEST DUP1 PUSH1 0x1F ADD PUSH1 0x20 DUP1 SWAP2 DIV MUL PUSH1 0x20 ADD PUSH1 0x40 MLOAD SWAP1 DUP2 ADD PUSH1 0x40 MSTORE DUP1 SWAP3 SWAP2 SWAP1 DUP2 DUP2 MSTORE PUSH1 0x20 ADD DUP3 DUP1 SLOAD PUSH2 0x117 SWAP1 PUSH2 0x358 JUMP JUMPDEST DUP1 ISZERO PUSH2 0x164 JUMPI DUP1 PUSH1 0x1F LT PUSH2 0x139 JUMPI PUSH2 0x100 DUP1 DUP4 SLOAD DIV MUL DUP4 MSTORE SWAP2 PUSH1 0x20 ADD SWAP2 PUSH2 0x164 JUMP JUMPDEST DUP3 ADD SWAP2 SWAP1 PUSH1 0x0 MSTORE PUSH1 0x20 PUSH1 0x0 KECCAK256 SWAP1 JUMPDEST DUP2 SLOAD DUP2 MSTORE SWAP1 PUSH1 0x1 ADD SWAP1 PUSH1 0x20 ADD DUP1 DUP4 GT PUSH2 0x147 JUMPI DUP3 SWAP1 SUB PUSH1 0x1F AND DUP3 ADD SWAP2 JUMPDEST POP POP POP POP POP DUP2 JUMP JUMPDEST PUSH1 0x60 PUSH1 0x0 DUP1 SLOAD PUSH2 0x17B SWAP1 PUSH2 0x358 JUMP JUMPDEST DUP1 PUSH1 0x1F ADD PUSH1 0x20 DUP1 SWAP2 DIV MUL PUSH1 0x20 ADD PUSH1 0x40 MLOAD SWAP1 DUP2 ADD PUSH1 0x40 MSTORE DUP1 SWAP3 SWAP2 SWAP1 DUP2 DUP2 MSTORE PUSH1 0x20 ADD DUP3 DUP1 SLOAD PUSH2 0x1A7 SWAP1 PUSH2 0x358 JUMP JUMPDEST DUP1 ISZERO PUSH2 0x1F4 JUMPI DUP1 PUSH1 0x1F LT PUSH2 0x1C9 JUMPI PUSH2 0x100 DUP1 DUP4 SLOAD DIV MUL DUP4 MSTORE SWAP2 PUSH1 0x20 ADD SWAP2 PUSH2 0x1F4 JUMP JUMPDEST DUP3 ADD SWAP2 SWAP1 PUSH1 0x0 MSTORE PUSH1 0x20 PUSH1 0x0 KECCAK256 SWAP1 JUMPDEST DUP2 SLOAD DUP2 MSTORE SWAP1 PUSH1 0x1 ADD SWAP1 PUSH1 0x20 ADD DUP1 DUP4 GT PUSH2 0x1D7 JUMPI DUP3 SWAP1 SUB PUSH1 0x1F AND DUP3 ADD SWAP2 JUMPDEST POP POP POP POP POP SWAP1 POP SWAP1 JUMP JUMPDEST PUSH1 0x1 SLOAD DUP2 JUMP JUMPDEST PUSH1 0x1 DUP1 SLOAD PUSH2 0x212 SWAP2 SWAP1 PUSH2 0x2C5 JUMP JUMPDEST PUSH1 0x1 DUP2 SWAP1 SSTORE POP JUMP JUMPDEST PUSH1 0x0 PUSH1 0x1 SLOAD SWAP1 POP SWAP1 JUMP JUMPDEST PUSH1 0x0 PUSH2 0x22F DUP3 PUSH2 0x2A9 JUMP JUMPDEST PUSH2 0x239 DUP2 DUP6 PUSH2 0x2B4 JUMP JUMPDEST SWAP4 POP PUSH2 0x249 DUP2 DUP6 PUSH1 0x20 DUP7 ADD PUSH2 0x325 JUMP JUMPDEST PUSH2 0x252 DUP2 PUSH2 0x3E8 JUMP JUMPDEST DUP5 ADD SWAP2 POP POP SWAP3 SWAP2 POP POP JUMP JUMPDEST PUSH2 0x266 DUP2 PUSH2 0x31B JUMP JUMPDEST DUP3 MSTORE POP POP JUMP JUMPDEST PUSH1 0x0 PUSH1 0x20 DUP3 ADD SWAP1 POP DUP2 DUP2 SUB PUSH1 0x0 DUP4 ADD MSTORE PUSH2 0x286 DUP2 DUP5 PUSH2 0x224 JUMP JUMPDEST SWAP1 POP SWAP3 SWAP2 POP POP JUMP JUMPDEST PUSH1 0x0 PUSH1 0x20 DUP3 ADD SWAP1 POP PUSH2 0x2A3 PUSH1 0x0 DUP4 ADD DUP5 PUSH2 0x25D JUMP JUMPDEST SWAP3 SWAP2 POP POP JUMP JUMPDEST PUSH1 0x0 DUP2 MLOAD SWAP1 POP SWAP2 SWAP1 POP JUMP JUMPDEST PUSH1 0x0 DUP3 DUP3 MSTORE PUSH1 0x20 DUP3 ADD SWAP1 POP SWAP3 SWAP2 POP POP JUMP JUMPDEST PUSH1 0x0 PUSH2 0x2D0 DUP3 PUSH2 0x31B JUMP JUMPDEST SWAP2 POP PUSH2 0x2DB DUP4 PUSH2 0x31B JUMP JUMPDEST SWAP3 POP DUP3 PUSH32 0xFFFFFFFFFFFFFFFFFFFFFFFFFFFFFFFFFFFFFFFFFFFFFFFFFFFFFFFFFFFFFFFF SUB DUP3 GT ISZERO PUSH2 0x310 JUMPI PUSH2 0x30F PUSH2 0x38A JUMP JUMPDEST JUMPDEST DUP3 DUP3 ADD SWAP1 POP SWAP3 SWAP2 POP POP JUMP JUMPDEST PUSH1 0x0 DUP2 SWAP1 POP SWAP2 SWAP1 POP JUMP JUMPDEST PUSH1 0x0 JUMPDEST DUP4 DUP2 LT ISZERO PUSH2 0x343 JUMPI DUP1 DUP3 ADD MLOAD DUP2 DUP5 ADD MSTORE PUSH1 0x20 DUP2 ADD SWAP1 POP PUSH2 0x328 JUMP JUMPDEST DUP4 DUP2 GT ISZERO PUSH2 0x352 JUMPI PUSH1 0x0 DUP5 DUP5 ADD MSTORE JUMPDEST POP POP POP POP JUMP JUMPDEST PUSH1 0x0 PUSH1 0x2 DUP3 DIV SWAP1 POP PUSH1 0x1 DUP3 AND DUP1 PUSH2 0x370 JUMPI PUSH1 0x7F DUP3 AND SWAP2 POP JUMPDEST PUSH1 0x20 DUP3 LT DUP2 EQ ISZERO PUSH2 0x384 JUMPI PUSH2 0x383 PUSH2 0x3B9 JUMP JUMPDEST JUMPDEST POP SWAP2 SWAP1 POP JUMP JUMPDEST PUSH32 0x4E487B7100000000000000000000000000000000000000000000000000000000 PUSH1 0x0 MSTORE PUSH1 0x11 PUSH1 0x4 MSTORE PUSH1 0x24 PUSH1 0x0 REVERT JUMPDEST PUSH32 0x4E487B7100000000000000000000000000000000000000000000000000000000 PUSH1 0x0 MSTORE PUSH1 0x22 PUSH1 0x4 MSTORE PUSH1 0x24 PUSH1 0x0 REVERT JUMPDEST PUSH1 0x0 PUSH1 0x1F NOT PUSH1 0x1F DUP4 ADD AND SWAP1 POP SWAP2 SWAP1 POP JUMP INVALID LOG2 PUSH5 0x6970667358 0x22 SLT KECCAK256 SGT 0x2B 0xB2 CREATE2 SWAP6 LT BYTE CHAINID 0xE3 CODESIZE 0x1F DUP3 0xD6 PUSH5 0x7F9A375B98 LT GT 0x2C 0xE2 0xA6 0xA5 0xCF SIGNEXTEND SWAP4 0xED 0xCF PUSH25 0x9864736F6C6343000800003300000000000000000000000000 "
				},
				"gasEstimates": {
					"creation": {
						"codeDepositCost": "214200",
						"executionCost": "infinite",
						"totalCost": "infinite"
					},
					"external": {
						"age()": "1151",
						"getAge()": "1203",
						"getName()": "infinite",
						"name()": "infinite",
						"setAge()": "infinite"
					}
				},
				"methodIdentifiers": {
					"age()": "262a9dff",
					"getAge()": "967e6e65",
					"getName()": "17d7de7c",
					"name()": "06fdde03",
					"setAge()": "457676ee"
				}
			},
			"storageLayout": {
				"storage": [
					{
						"astId": 3,
						"contract": "identity.sol:Identity",
						"label": "name",
						"offset": 0,
						"slot": "0",
						"type": "t_string_storage"
					},
					{
						"astId": 5,
						"contract": "identity.sol:Identity",
						"label": "age",
						"offset": 0,
						"slot": "1",
						"type": "t_uint256"
					}
				],
				"types": {
					"t_string_storage": {
						"encoding": "bytes",
						"label": "string",
						"numberOfBytes": "32"
					},
					"t_uint256": {
						"encoding": "inplace",
						"label": "uint256",
						"numberOfBytes": "32"
					}
				}
			},
			"userdoc": {
				"kind": "user",
				"methods": {},
				"version": 1
			}
		}
	}
}