{
	"Functions.sol": {
		"Functions": {
			"abi": [
				{
					"inputs": [],
					"name": "getter",
					"outputs": [
						{
							"internalType": "uint256",
							"name": "",
							"type": "uint256"
						}
					],
					"stateMutability": "view",
					"type": "function"
				},
				{
					"inputs": [
						{
							"internalType": "uint256",
							"name": "newage",
							"type": "uint256"
						}
					],
					"name": "setter",
					"outputs": [],
					"stateMutability": "nonpayable",
					"type": "function"
				}
			],
			"devdoc": {
				"kind": "dev",
				"methods": {},
				"version": 1
			},
			"evm": {
				"assembly": "    /* \"Functions.sol\":77:735  contract Functions{\r... */\n  mstore(0x40, 0x80)\n    /* \"Functions.sol\":113:115  10 */\n  0x0a\n    /* \"Functions.sol\":102:115  uint age = 10 */\n  0x00\n  sstore\n    /* \"Functions.sol\":77:735  contract Functions{\r... */\n  callvalue\n  dup1\n  iszero\n  tag_1\n  jumpi\n  0x00\n  dup1\n  revert\ntag_1:\n  pop\n  dataSize(sub_0)\n  dup1\n  dataOffset(sub_0)\n  0x00\n  codecopy\n  0x00\n  return\nstop\n\nsub_0: assembly {\n        /* \"Functions.sol\":77:735  contract Functions{\r... */\n      mstore(0x40, 0x80)\n      callvalue\n      dup1\n      iszero\n      tag_1\n      jumpi\n      0x00\n      dup1\n      revert\n    tag_1:\n      pop\n      jumpi(tag_2, lt(calldatasize, 0x04))\n      shr(0xe0, calldataload(0x00))\n      dup1\n      0x993a04b7\n      eq\n      tag_3\n      jumpi\n      dup1\n      0xd423740b\n      eq\n      tag_4\n      jumpi\n    tag_2:\n      0x00\n      dup1\n      revert\n        /* \"Functions.sol\":204:313  function getter() public view returns (uint)\r... */\n    tag_3:\n      tag_5\n      tag_6\n      jump\t// in\n    tag_5:\n      mload(0x40)\n      tag_7\n      swap2\n      swap1\n      tag_8\n      jump\t// in\n    tag_7:\n      mload(0x40)\n      dup1\n      swap2\n      sub\n      swap1\n      return\n        /* \"Functions.sol\":439:512  function setter(uint newage) public\r... */\n    tag_4:\n      tag_9\n      0x04\n      dup1\n      calldatasize\n      sub\n      dup2\n      add\n      swap1\n      tag_10\n      swap2\n      swap1\n      tag_11\n      jump\t// in\n    tag_10:\n      tag_12\n      jump\t// in\n    tag_9:\n      stop\n        /* \"Functions.sol\":204:313  function getter() public view returns (uint)\r... */\n    tag_6:\n        /* \"Functions.sol\":243:247  uint */\n      0x00\n        /* \"Functions.sol\":301:304  age */\n      dup1\n      sload\n        /* \"Functions.sol\":294:304  return age */\n      swap1\n      pop\n        /* \"Functions.sol\":204:313  function getter() public view returns (uint)\r... */\n      swap1\n      jump\t// out\n        /* \"Functions.sol\":439:512  function setter(uint newage) public\r... */\n    tag_12:\n        /* \"Functions.sol\":497:503  newage */\n      dup1\n        /* \"Functions.sol\":491:494  age */\n      0x00\n        /* \"Functions.sol\":491:503  age = newage */\n      dup2\n      swap1\n      sstore\n      pop\n        /* \"Functions.sol\":439:512  function setter(uint newage) public\r... */\n      pop\n      jump\t// out\n        /* \"#utility.yul\":7:146   */\n    tag_16:\n      0x00\n        /* \"#utility.yul\":91:97   */\n      dup2\n        /* \"#utility.yul\":78:98   */\n      calldataload\n        /* \"#utility.yul\":69:98   */\n      swap1\n      pop\n        /* \"#utility.yul\":107:140   */\n      tag_18\n        /* \"#utility.yul\":134:139   */\n      dup2\n        /* \"#utility.yul\":107:140   */\n      tag_19\n      jump\t// in\n    tag_18:\n        /* \"#utility.yul\":59:146   */\n      swap3\n      swap2\n      pop\n      pop\n      jump\t// out\n        /* \"#utility.yul\":152:414   */\n    tag_11:\n      0x00\n        /* \"#utility.yul\":260:262   */\n      0x20\n        /* \"#utility.yul\":248:257   */\n      dup3\n        /* \"#utility.yul\":239:246   */\n      dup5\n        /* \"#utility.yul\":235:258   */\n      sub\n        /* \"#utility.yul\":231:263   */\n      slt\n        /* \"#utility.yul\":228:230   */\n      iszero\n      tag_21\n      jumpi\n        /* \"#utility.yul\":276:277   */\n      0x00\n        /* \"#utility.yul\":273:274   */\n      dup1\n        /* \"#utility.yul\":266:278   */\n      revert\n        /* \"#utility.yul\":228:230   */\n    tag_21:\n        /* \"#utility.yul\":319:320   */\n      0x00\n        /* \"#utility.yul\":344:397   */\n      tag_22\n        /* \"#utility.yul\":389:396   */\n      dup5\n        /* \"#utility.yul\":380:386   */\n      dup3\n        /* \"#utility.yul\":369:378   */\n      dup6\n        /* \"#utility.yul\":365:387   */\n      add\n        /* \"#utility.yul\":344:397   */\n      tag_16\n      jump\t// in\n    tag_22:\n        /* \"#utility.yul\":334:397   */\n      swap2\n      pop\n        /* \"#utility.yul\":290:407   */\n      pop\n        /* \"#utility.yul\":218:414   */\n      swap3\n      swap2\n      pop\n      pop\n      jump\t// out\n        /* \"#utility.yul\":420:538   */\n    tag_23:\n        /* \"#utility.yul\":507:531   */\n      tag_25\n        /* \"#utility.yul\":525:530   */\n      dup2\n        /* \"#utility.yul\":507:531   */\n      tag_26\n      jump\t// in\n    tag_25:\n        /* \"#utility.yul\":502:505   */\n      dup3\n        /* \"#utility.yul\":495:532   */\n      mstore\n        /* \"#utility.yul\":485:538   */\n      pop\n      pop\n      jump\t// out\n        /* \"#utility.yul\":544:766   */\n    tag_8:\n      0x00\n        /* \"#utility.yul\":675:677   */\n      0x20\n        /* \"#utility.yul\":664:673   */\n      dup3\n        /* \"#utility.yul\":660:678   */\n      add\n        /* \"#utility.yul\":652:678   */\n      swap1\n      pop\n        /* \"#utility.yul\":688:759   */\n      tag_28\n        /* \"#utility.yul\":756:757   */\n      0x00\n        /* \"#utility.yul\":745:754   */\n      dup4\n        /* \"#utility.yul\":741:758   */\n      add\n        /* \"#utility.yul\":732:738   */\n      dup5\n        /* \"#utility.yul\":688:759   */\n      tag_23\n      jump\t// in\n    tag_28:\n        /* \"#utility.yul\":642:766   */\n      swap3\n      swap2\n      pop\n      pop\n      jump\t// out\n        /* \"#utility.yul\":772:849   */\n    tag_26:\n      0x00\n        /* \"#utility.yul\":838:843   */\n      dup2\n        /* \"#utility.yul\":827:843   */\n      swap1\n      pop\n        /* \"#utility.yul\":817:849   */\n      swap2\n      swap1\n      pop\n      jump\t// out\n        /* \"#utility.yul\":855:977   */\n    tag_19:\n        /* \"#utility.yul\":928:952   */\n      tag_31\n        /* \"#utility.yul\":946:951   */\n      dup2\n        /* \"#utility.yul\":928:952   */\n      tag_26\n      jump\t// in\n    tag_31:\n        /* \"#utility.yul\":921:926   */\n      dup2\n        /* \"#utility.yul\":918:953   */\n      eq\n        /* \"#utility.yul\":908:910   */\n      tag_32\n      jumpi\n        /* \"#utility.yul\":967:968   */\n      0x00\n        /* \"#utility.yul\":964:965   */\n      dup1\n        /* \"#utility.yul\":957:969   */\n      revert\n        /* \"#utility.yul\":908:910   */\n    tag_32:\n        /* \"#utility.yul\":898:977   */\n      pop\n      jump\t// out\n\n    auxdata: 0xa264697066735822122068d8621636ed1f6047def507cc16eeb9317e53ede4f8a3323b73f363b2667d6d64736f6c63430008000033\n}\n",
				"bytecode": {
					"linkReferences": {},
					"object": "6080604052600a60005534801561001557600080fd5b5061012f806100256000396000f3fe6080604052348015600f57600080fd5b506004361060325760003560e01c8063993a04b7146037578063d423740b146051575b600080fd5b603d6069565b6040516048919060c2565b60405180910390f35b6067600480360381019060639190608f565b6072565b005b60008054905090565b8060008190555050565b60008135905060898160e5565b92915050565b60006020828403121560a057600080fd5b600060ac84828501607c565b91505092915050565b60bc8160db565b82525050565b600060208201905060d5600083018460b5565b92915050565b6000819050919050565b60ec8160db565b811460f657600080fd5b5056fea264697066735822122068d8621636ed1f6047def507cc16eeb9317e53ede4f8a3323b73f363b2667d6d64736f6c63430008000033",
					"opcodes": "PUSH1 0x80 PUSH1 0x40 MSTORE PUSH1 0xA PUSH1 0x0 SSTORE CALLVALUE DUP1 ISZERO PUSH2 0x15 JUMPI PUSH1 0x0 DUP1 REVERT JUMPDEST POP PUSH2 0x12F DUP1 PUSH2 0x25 PUSH1 0x0 CODECOPY PUSH1 0x0 RETURN INVALID PUSH1 0x80 PUSH1 0x40 MSTORE CALLVALUE DUP1 ISZERO PUSH1 0xF JUMPI PUSH1 0x0 DUP1 REVERT JUMPDEST POP PUSH1 0x4 CALLDATASIZE LT PUSH1 0x32 JUMPI PUSH1 0x0 CALLDATALOAD PUSH1 0xE0 SHR DUP1 PUSH4 0x993A04B7 EQ PUSH1 0x37 JUMPI DUP1 PUSH4 0xD423740B EQ PUSH1 0x51 JUMPI JUMPDEST PUSH1 0x0 DUP1 REVERT JUMPDEST PUSH1 0x3D PUSH1 0x69 JUMP JUMPDEST PUSH1 0x40 MLOAD PUSH1 0x48 SWAP2 SWAP1 PUSH1 0xC2 JUMP JUMPDEST PUSH1 0x40 MLOAD DUP1 SWAP2 SUB SWAP1 RETURN JUMPDEST PUSH1 0x67 PUSH1 0x4 DUP1 CALLDATASIZE SUB DUP2 ADD SWAP1 PUSH1 0x63 SWAP2 SWAP1 PUSH1 0x8F JUMP JUMPDEST PUSH1 0x72 JUMP JUMPDEST STOP JUMPDEST PUSH1 0x0 DUP1 SLOAD SWAP1 POP SWAP1 JUMP JUMPDEST DUP1 PUSH1 0x0 DUP2 SWAP1 SSTORE POP POP JUMP JUMPDEST PUSH1 0x0 DUP2 CALLDATALOAD SWAP1 POP PUSH1 0x89 DUP2 PUSH1 0xE5 JUMP JUMPDEST SWAP3 SWAP2 POP POP JUMP JUMPDEST PUSH1 0x0 PUSH1 0x20 DUP3 DUP5 SUB SLT ISZERO PUSH1 0xA0 JUMPI PUSH1 0x0 DUP1 REVERT JUMPDEST PUSH1 0x0 PUSH1 0xAC DUP5 DUP3 DUP6 ADD PUSH1 0x7C JUMP JUMPDEST SWAP2 POP POP SWAP3 SWAP2 POP POP JUMP JUMPDEST PUSH1 0xBC DUP2 PUSH1 0xDB JUMP JUMPDEST DUP3 MSTORE POP POP JUMP JUMPDEST PUSH1 0x0 PUSH1 0x20 DUP3 ADD SWAP1 POP PUSH1 0xD5 PUSH1 0x0 DUP4 ADD DUP5 PUSH1 0xB5 JUMP JUMPDEST SWAP3 SWAP2 POP POP JUMP JUMPDEST PUSH1 0x0 DUP2 SWAP1 POP SWAP2 SWAP1 POP JUMP JUMPDEST PUSH1 0xEC DUP2 PUSH1 0xDB JUMP JUMPDEST DUP2 EQ PUSH1 0xF6 JUMPI PUSH1 0x0 DUP1 REVERT JUMPDEST POP JUMP INVALID LOG2 PUSH5 0x6970667358 0x22 SLT KECCAK256 PUSH9 0xD8621636ED1F6047DE CREATE2 SMOD 0xCC AND 0xEE 0xB9 BALANCE PUSH31 0x53EDE4F8A3323B73F363B2667D6D64736F6C63430008000033000000000000 "
				},
				"gasEstimates": {
					"creation": {
						"codeDepositCost": "60600",
						"executionCost": "20117",
						"totalCost": "80717"
					},
					"external": {
						"getter()": "1115",
						"setter(uint256)": "20420"
					}
				},
				"methodIdentifiers": {
					"getter()": "993a04b7",
					"setter(uint256)": "d423740b"
				}
			},
			"storageLayout": {
				"storage": [
					{
						"astId": 4,
						"contract": "Functions.sol:Functions",
						"label": "age",
						"offset": 0,
						"slot": "0",
						"type": "t_uint256"
					}
				],
				"types": {
					"t_uint256": {
						"encoding": "inplace",
						"label": "uint256",
						"numberOfBytes": "32"
					}
				}
			},
			"userdoc": {
				"kind": "user",
				"methods": {},
				"version": 1
			}
		}
	}
}