{
	"Struct.sol": {
		"structure": {
			"abi": [
				{
					"inputs": [
						{
							"internalType": "uint256",
							"name": "_roll",
							"type": "uint256"
						},
						{
							"internalType": "string",
							"name": "_name",
							"type": "string"
						}
					],
					"stateMutability": "nonpayable",
					"type": "constructor"
				},
				{
					"inputs": [
						{
							"internalType": "uint256",
							"name": "_roll",
							"type": "uint256"
						},
						{
							"internalType": "string",
							"name": "_name",
							"type": "string"
						}
					],
					"name": "change",
					"outputs": [],
					"stateMutability": "nonpayable",
					"type": "function"
				},
				{
					"inputs": [],
					"name": "s1",
					"outputs": [
						{
							"internalType": "uint256",
							"name": "roll",
							"type": "uint256"
						},
						{
							"internalType": "string",
							"name": "name",
							"type": "string"
						}
					],
					"stateMutability": "view",
					"type": "function"
				}
			],
			"devdoc": {
				"kind": "dev",
				"methods": {},
				"version": 1
			},
			"evm": {
				"assembly": "    /* \"Struct.sol\":138:671  contract structure\r... */\n  mstore(0x40, 0x80)\n    /* \"Struct.sol\":329:440  constructor(uint _roll,string memory _name)\r... */\n  callvalue\n  dup1\n  iszero\n  tag_1\n  jumpi\n  0x00\n  dup1\n  revert\ntag_1:\n  pop\n  mload(0x40)\n  sub(codesize, bytecodeSize)\n  dup1\n  bytecodeSize\n  dup4\n  codecopy\n  dup2\n  dup2\n  add\n  0x40\n  mstore\n  dup2\n  add\n  swap1\n  tag_2\n  swap2\n  swap1\n  tag_3\n  jump\t// in\ntag_2:\n    /* \"Struct.sol\":399:404  _roll */\n  dup2\n    /* \"Struct.sol\":389:391  s1 */\n  0x00\n    /* \"Struct.sol\":389:396  s1.roll */\n  dup1\n  add\n    /* \"Struct.sol\":389:404  s1.roll = _roll */\n  dup2\n  swap1\n  sstore\n  pop\n    /* \"Struct.sol\":426:431  _name */\n  dup1\n    /* \"Struct.sol\":416:418  s1 */\n  0x00\n    /* \"Struct.sol\":416:423  s1.name */\n  0x01\n  add\n    /* \"Struct.sol\":416:431  s1.name = _name */\n  swap1\n  dup1\n  mload\n  swap1\n  0x20\n  add\n  swap1\n  tag_6\n  swap3\n  swap2\n  swap1\n  tag_7\n  jump\t// in\ntag_6:\n  pop\n    /* \"Struct.sol\":329:440  constructor(uint _roll,string memory _name)\r... */\n  pop\n  pop\n    /* \"Struct.sol\":138:671  contract structure\r... */\n  jump(tag_8)\ntag_7:\n  dup3\n  dup1\n  sload\n  tag_9\n  swap1\n  tag_10\n  jump\t// in\ntag_9:\n  swap1\n  0x00\n  mstore\n  keccak256(0x00, 0x20)\n  swap1\n  0x1f\n  add\n  0x20\n  swap1\n  div\n  dup2\n  add\n  swap3\n  dup3\n  tag_12\n  jumpi\n  0x00\n  dup6\n  sstore\n  jump(tag_11)\ntag_12:\n  dup3\n  0x1f\n  lt\n  tag_13\n  jumpi\n  dup1\n  mload\n  not(0xff)\n  and\n  dup4\n  dup1\n  add\n  or\n  dup6\n  sstore\n  jump(tag_11)\ntag_13:\n  dup3\n  dup1\n  add\n  0x01\n  add\n  dup6\n  sstore\n  dup3\n  iszero\n  tag_11\n  jumpi\n  swap2\n  dup3\n  add\ntag_14:\n  dup3\n  dup2\n  gt\n  iszero\n  tag_15\n  jumpi\n  dup3\n  mload\n  dup3\n  sstore\n  swap2\n  0x20\n  add\n  swap2\n  swap1\n  0x01\n  add\n  swap1\n  jump(tag_14)\ntag_15:\ntag_11:\n  pop\n  swap1\n  pop\n  tag_16\n  swap2\n  swap1\n  tag_17\n  jump\t// in\ntag_16:\n  pop\n  swap1\n  jump\t// out\ntag_17:\ntag_18:\n  dup1\n  dup3\n  gt\n  iszero\n  tag_19\n  jumpi\n  0x00\n  dup2\n  0x00\n  swap1\n  sstore\n  pop\n  0x01\n  add\n  jump(tag_18)\ntag_19:\n  pop\n  swap1\n  jump\t// out\n    /* \"#utility.yul\":7:360   */\ntag_21:\n  0x00\n    /* \"#utility.yul\":121:186   */\n  tag_23\n    /* \"#utility.yul\":136:185   */\n  tag_24\n    /* \"#utility.yul\":178:184   */\n  dup5\n    /* \"#utility.yul\":136:185   */\n  tag_25\n  jump\t// in\ntag_24:\n    /* \"#utility.yul\":121:186   */\n  tag_26\n  jump\t// in\ntag_23:\n    /* \"#utility.yul\":112:186   */\n  swap1\n  pop\n    /* \"#utility.yul\":209:215   */\n  dup3\n    /* \"#utility.yul\":202:207   */\n  dup2\n    /* \"#utility.yul\":195:216   */\n  mstore\n    /* \"#utility.yul\":247:251   */\n  0x20\n    /* \"#utility.yul\":240:245   */\n  dup2\n    /* \"#utility.yul\":236:252   */\n  add\n    /* \"#utility.yul\":285:288   */\n  dup5\n    /* \"#utility.yul\":276:282   */\n  dup5\n    /* \"#utility.yul\":271:274   */\n  dup5\n    /* \"#utility.yul\":267:283   */\n  add\n    /* \"#utility.yul\":264:289   */\n  gt\n    /* \"#utility.yul\":261:263   */\n  iszero\n  tag_27\n  jumpi\n    /* \"#utility.yul\":302:303   */\n  0x00\n    /* \"#utility.yul\":299:300   */\n  dup1\n    /* \"#utility.yul\":292:304   */\n  revert\n    /* \"#utility.yul\":261:263   */\ntag_27:\n    /* \"#utility.yul\":315:354   */\n  tag_28\n    /* \"#utility.yul\":347:353   */\n  dup5\n    /* \"#utility.yul\":342:345   */\n  dup3\n    /* \"#utility.yul\":337:340   */\n  dup6\n    /* \"#utility.yul\":315:354   */\n  tag_29\n  jump\t// in\ntag_28:\n    /* \"#utility.yul\":102:360   */\n  pop\n  swap4\n  swap3\n  pop\n  pop\n  pop\n  jump\t// out\n    /* \"#utility.yul\":380:668   */\ntag_30:\n  0x00\n    /* \"#utility.yul\":496:499   */\n  dup3\n    /* \"#utility.yul\":489:493   */\n  0x1f\n    /* \"#utility.yul\":481:487   */\n  dup4\n    /* \"#utility.yul\":477:494   */\n  add\n    /* \"#utility.yul\":473:500   */\n  slt\n    /* \"#utility.yul\":463:465   */\n  tag_32\n  jumpi\n    /* \"#utility.yul\":514:515   */\n  0x00\n    /* \"#utility.yul\":511:512   */\n  dup1\n    /* \"#utility.yul\":504:516   */\n  revert\n    /* \"#utility.yul\":463:465   */\ntag_32:\n    /* \"#utility.yul\":547:553   */\n  dup2\n    /* \"#utility.yul\":541:554   */\n  mload\n    /* \"#utility.yul\":572:662   */\n  tag_33\n    /* \"#utility.yul\":658:661   */\n  dup5\n    /* \"#utility.yul\":650:656   */\n  dup3\n    /* \"#utility.yul\":643:647   */\n  0x20\n    /* \"#utility.yul\":635:641   */\n  dup7\n    /* \"#utility.yul\":631:648   */\n  add\n    /* \"#utility.yul\":572:662   */\n  tag_21\n  jump\t// in\ntag_33:\n    /* \"#utility.yul\":563:662   */\n  swap2\n  pop\n    /* \"#utility.yul\":453:668   */\n  pop\n  swap3\n  swap2\n  pop\n  pop\n  jump\t// out\n    /* \"#utility.yul\":674:817   */\ntag_34:\n  0x00\n    /* \"#utility.yul\":762:768   */\n  dup2\n    /* \"#utility.yul\":756:769   */\n  mload\n    /* \"#utility.yul\":747:769   */\n  swap1\n  pop\n    /* \"#utility.yul\":778:811   */\n  tag_36\n    /* \"#utility.yul\":805:810   */\n  dup2\n    /* \"#utility.yul\":778:811   */\n  tag_37\n  jump\t// in\ntag_36:\n    /* \"#utility.yul\":737:817   */\n  swap3\n  swap2\n  pop\n  pop\n  jump\t// out\n    /* \"#utility.yul\":823:1369   */\ntag_3:\n  0x00\n  dup1\n    /* \"#utility.yul\":969:971   */\n  0x40\n    /* \"#utility.yul\":957:966   */\n  dup4\n    /* \"#utility.yul\":948:955   */\n  dup6\n    /* \"#utility.yul\":944:967   */\n  sub\n    /* \"#utility.yul\":940:972   */\n  slt\n    /* \"#utility.yul\":937:939   */\n  iszero\n  tag_39\n  jumpi\n    /* \"#utility.yul\":985:986   */\n  0x00\n    /* \"#utility.yul\":982:983   */\n  dup1\n    /* \"#utility.yul\":975:987   */\n  revert\n    /* \"#utility.yul\":937:939   */\ntag_39:\n    /* \"#utility.yul\":1028:1029   */\n  0x00\n    /* \"#utility.yul\":1053:1117   */\n  tag_40\n    /* \"#utility.yul\":1109:1116   */\n  dup6\n    /* \"#utility.yul\":1100:1106   */\n  dup3\n    /* \"#utility.yul\":1089:1098   */\n  dup7\n    /* \"#utility.yul\":1085:1107   */\n  add\n    /* \"#utility.yul\":1053:1117   */\n  tag_34\n  jump\t// in\ntag_40:\n    /* \"#utility.yul\":1043:1117   */\n  swap3\n  pop\n    /* \"#utility.yul\":999:1127   */\n  pop\n    /* \"#utility.yul\":1187:1189   */\n  0x20\n    /* \"#utility.yul\":1176:1185   */\n  dup4\n    /* \"#utility.yul\":1172:1190   */\n  add\n    /* \"#utility.yul\":1166:1191   */\n  mload\n    /* \"#utility.yul\":1218:1236   */\n  0xffffffffffffffff\n    /* \"#utility.yul\":1210:1216   */\n  dup2\n    /* \"#utility.yul\":1207:1237   */\n  gt\n    /* \"#utility.yul\":1204:1206   */\n  iszero\n  tag_41\n  jumpi\n    /* \"#utility.yul\":1250:1251   */\n  0x00\n    /* \"#utility.yul\":1247:1248   */\n  dup1\n    /* \"#utility.yul\":1240:1252   */\n  revert\n    /* \"#utility.yul\":1204:1206   */\ntag_41:\n    /* \"#utility.yul\":1278:1352   */\n  tag_42\n    /* \"#utility.yul\":1344:1351   */\n  dup6\n    /* \"#utility.yul\":1335:1341   */\n  dup3\n    /* \"#utility.yul\":1324:1333   */\n  dup7\n    /* \"#utility.yul\":1320:1342   */\n  add\n    /* \"#utility.yul\":1278:1352   */\n  tag_30\n  jump\t// in\ntag_42:\n    /* \"#utility.yul\":1268:1352   */\n  swap2\n  pop\n    /* \"#utility.yul\":1137:1362   */\n  pop\n    /* \"#utility.yul\":927:1369   */\n  swap3\n  pop\n  swap3\n  swap1\n  pop\n  jump\t// out\n    /* \"#utility.yul\":1375:1658   */\ntag_26:\n  0x00\n    /* \"#utility.yul\":1441:1443   */\n  0x40\n    /* \"#utility.yul\":1435:1444   */\n  mload\n    /* \"#utility.yul\":1425:1444   */\n  swap1\n  pop\n    /* \"#utility.yul\":1483:1487   */\n  dup2\n    /* \"#utility.yul\":1475:1481   */\n  dup2\n    /* \"#utility.yul\":1471:1488   */\n  add\n    /* \"#utility.yul\":1590:1596   */\n  dup2\n    /* \"#utility.yul\":1578:1588   */\n  dup2\n    /* \"#utility.yul\":1575:1597   */\n  lt\n    /* \"#utility.yul\":1554:1572   */\n  0xffffffffffffffff\n    /* \"#utility.yul\":1542:1552   */\n  dup3\n    /* \"#utility.yul\":1539:1573   */\n  gt\n    /* \"#utility.yul\":1536:1598   */\n  or\n    /* \"#utility.yul\":1533:1535   */\n  iszero\n  tag_44\n  jumpi\n    /* \"#utility.yul\":1601:1619   */\n  tag_45\n  tag_46\n  jump\t// in\ntag_45:\n    /* \"#utility.yul\":1533:1535   */\ntag_44:\n    /* \"#utility.yul\":1641:1651   */\n  dup1\n    /* \"#utility.yul\":1637:1639   */\n  0x40\n    /* \"#utility.yul\":1630:1652   */\n  mstore\n    /* \"#utility.yul\":1415:1658   */\n  pop\n  swap2\n  swap1\n  pop\n  jump\t// out\n    /* \"#utility.yul\":1664:1996   */\ntag_25:\n  0x00\n    /* \"#utility.yul\":1816:1834   */\n  0xffffffffffffffff\n    /* \"#utility.yul\":1808:1814   */\n  dup3\n    /* \"#utility.yul\":1805:1835   */\n  gt\n    /* \"#utility.yul\":1802:1804   */\n  iszero\n  tag_48\n  jumpi\n    /* \"#utility.yul\":1838:1856   */\n  tag_49\n  tag_46\n  jump\t// in\ntag_49:\n    /* \"#utility.yul\":1802:1804   */\ntag_48:\n    /* \"#utility.yul\":1923:1927   */\n  0x1f\n    /* \"#utility.yul\":1919:1928   */\n  not\n    /* \"#utility.yul\":1912:1916   */\n  0x1f\n    /* \"#utility.yul\":1904:1910   */\n  dup4\n    /* \"#utility.yul\":1900:1917   */\n  add\n    /* \"#utility.yul\":1896:1929   */\n  and\n    /* \"#utility.yul\":1888:1929   */\n  swap1\n  pop\n    /* \"#utility.yul\":1984:1988   */\n  0x20\n    /* \"#utility.yul\":1978:1982   */\n  dup2\n    /* \"#utility.yul\":1974:1989   */\n  add\n    /* \"#utility.yul\":1966:1989   */\n  swap1\n  pop\n    /* \"#utility.yul\":1731:1996   */\n  swap2\n  swap1\n  pop\n  jump\t// out\n    /* \"#utility.yul\":2002:2079   */\ntag_50:\n  0x00\n    /* \"#utility.yul\":2068:2073   */\n  dup2\n    /* \"#utility.yul\":2057:2073   */\n  swap1\n  pop\n    /* \"#utility.yul\":2047:2079   */\n  swap2\n  swap1\n  pop\n  jump\t// out\n    /* \"#utility.yul\":2085:2392   */\ntag_29:\n    /* \"#utility.yul\":2153:2154   */\n  0x00\n    /* \"#utility.yul\":2163:2276   */\ntag_53:\n    /* \"#utility.yul\":2177:2183   */\n  dup4\n    /* \"#utility.yul\":2174:2175   */\n  dup2\n    /* \"#utility.yul\":2171:2184   */\n  lt\n    /* \"#utility.yul\":2163:2276   */\n  iszero\n  tag_55\n  jumpi\n    /* \"#utility.yul\":2262:2263   */\n  dup1\n    /* \"#utility.yul\":2257:2260   */\n  dup3\n    /* \"#utility.yul\":2253:2264   */\n  add\n    /* \"#utility.yul\":2247:2265   */\n  mload\n    /* \"#utility.yul\":2243:2244   */\n  dup2\n    /* \"#utility.yul\":2238:2241   */\n  dup5\n    /* \"#utility.yul\":2234:2245   */\n  add\n    /* \"#utility.yul\":2227:2266   */\n  mstore\n    /* \"#utility.yul\":2199:2201   */\n  0x20\n    /* \"#utility.yul\":2196:2197   */\n  dup2\n    /* \"#utility.yul\":2192:2202   */\n  add\n    /* \"#utility.yul\":2187:2202   */\n  swap1\n  pop\n    /* \"#utility.yul\":2163:2276   */\n  jump(tag_53)\ntag_55:\n    /* \"#utility.yul\":2294:2300   */\n  dup4\n    /* \"#utility.yul\":2291:2292   */\n  dup2\n    /* \"#utility.yul\":2288:2301   */\n  gt\n    /* \"#utility.yul\":2285:2287   */\n  iszero\n  tag_56\n  jumpi\n    /* \"#utility.yul\":2374:2375   */\n  0x00\n    /* \"#utility.yul\":2365:2371   */\n  dup5\n    /* \"#utility.yul\":2360:2363   */\n  dup5\n    /* \"#utility.yul\":2356:2372   */\n  add\n    /* \"#utility.yul\":2349:2376   */\n  mstore\n    /* \"#utility.yul\":2285:2287   */\ntag_56:\n    /* \"#utility.yul\":2134:2392   */\n  pop\n  pop\n  pop\n  pop\n  jump\t// out\n    /* \"#utility.yul\":2398:2718   */\ntag_10:\n  0x00\n    /* \"#utility.yul\":2479:2480   */\n  0x02\n    /* \"#utility.yul\":2473:2477   */\n  dup3\n    /* \"#utility.yul\":2469:2481   */\n  div\n    /* \"#utility.yul\":2459:2481   */\n  swap1\n  pop\n    /* \"#utility.yul\":2526:2527   */\n  0x01\n    /* \"#utility.yul\":2520:2524   */\n  dup3\n    /* \"#utility.yul\":2516:2528   */\n  and\n    /* \"#utility.yul\":2547:2565   */\n  dup1\n    /* \"#utility.yul\":2537:2539   */\n  tag_58\n  jumpi\n    /* \"#utility.yul\":2603:2607   */\n  0x7f\n    /* \"#utility.yul\":2595:2601   */\n  dup3\n    /* \"#utility.yul\":2591:2608   */\n  and\n    /* \"#utility.yul\":2581:2608   */\n  swap2\n  pop\n    /* \"#utility.yul\":2537:2539   */\ntag_58:\n    /* \"#utility.yul\":2665:2667   */\n  0x20\n    /* \"#utility.yul\":2657:2663   */\n  dup3\n    /* \"#utility.yul\":2654:2668   */\n  lt\n    /* \"#utility.yul\":2634:2652   */\n  dup2\n    /* \"#utility.yul\":2631:2669   */\n  eq\n    /* \"#utility.yul\":2628:2630   */\n  iszero\n  tag_59\n  jumpi\n    /* \"#utility.yul\":2684:2702   */\n  tag_60\n  tag_61\n  jump\t// in\ntag_60:\n    /* \"#utility.yul\":2628:2630   */\ntag_59:\n    /* \"#utility.yul\":2449:2718   */\n  pop\n  swap2\n  swap1\n  pop\n  jump\t// out\n    /* \"#utility.yul\":2724:2904   */\ntag_61:\n    /* \"#utility.yul\":2772:2849   */\n  0x4e487b7100000000000000000000000000000000000000000000000000000000\n    /* \"#utility.yul\":2769:2770   */\n  0x00\n    /* \"#utility.yul\":2762:2850   */\n  mstore\n    /* \"#utility.yul\":2869:2873   */\n  0x22\n    /* \"#utility.yul\":2866:2867   */\n  0x04\n    /* \"#utility.yul\":2859:2874   */\n  mstore\n    /* \"#utility.yul\":2893:2897   */\n  0x24\n    /* \"#utility.yul\":2890:2891   */\n  0x00\n    /* \"#utility.yul\":2883:2898   */\n  revert\n    /* \"#utility.yul\":2910:3090   */\ntag_46:\n    /* \"#utility.yul\":2958:3035   */\n  0x4e487b7100000000000000000000000000000000000000000000000000000000\n    /* \"#utility.yul\":2955:2956   */\n  0x00\n    /* \"#utility.yul\":2948:3036   */\n  mstore\n    /* \"#utility.yul\":3055:3059   */\n  0x41\n    /* \"#utility.yul\":3052:3053   */\n  0x04\n    /* \"#utility.yul\":3045:3060   */\n  mstore\n    /* \"#utility.yul\":3079:3083   */\n  0x24\n    /* \"#utility.yul\":3076:3077   */\n  0x00\n    /* \"#utility.yul\":3069:3084   */\n  revert\n    /* \"#utility.yul\":3096:3218   */\ntag_37:\n    /* \"#utility.yul\":3169:3193   */\n  tag_65\n    /* \"#utility.yul\":3187:3192   */\n  dup2\n    /* \"#utility.yul\":3169:3193   */\n  tag_50\n  jump\t// in\ntag_65:\n    /* \"#utility.yul\":3162:3167   */\n  dup2\n    /* \"#utility.yul\":3159:3194   */\n  eq\n    /* \"#utility.yul\":3149:3151   */\n  tag_66\n  jumpi\n    /* \"#utility.yul\":3208:3209   */\n  0x00\n    /* \"#utility.yul\":3205:3206   */\n  dup1\n    /* \"#utility.yul\":3198:3210   */\n  revert\n    /* \"#utility.yul\":3149:3151   */\ntag_66:\n    /* \"#utility.yul\":3139:3218   */\n  pop\n  jump\t// out\n    /* \"Struct.sol\":138:671  contract structure\r... */\ntag_8:\n  dataSize(sub_0)\n  dup1\n  dataOffset(sub_0)\n  0x00\n  codecopy\n  0x00\n  return\nstop\n\nsub_0: assembly {\n        /* \"Struct.sol\":138:671  contract structure\r... */\n      mstore(0x40, 0x80)\n      callvalue\n      dup1\n      iszero\n      tag_1\n      jumpi\n      0x00\n      dup1\n      revert\n    tag_1:\n      pop\n      jumpi(tag_2, lt(calldatasize, 0x04))\n      shr(0xe0, calldataload(0x00))\n      dup1\n      0x6cc014de\n      eq\n      tag_3\n      jumpi\n      dup1\n      0xc75226ec\n      eq\n      tag_4\n      jumpi\n    tag_2:\n      0x00\n      dup1\n      revert\n        /* \"Struct.sol\":304:321  student public s1 */\n    tag_3:\n      tag_5\n      tag_6\n      jump\t// in\n    tag_5:\n      mload(0x40)\n      tag_7\n      swap3\n      swap2\n      swap1\n      tag_8\n      jump\t// in\n    tag_7:\n      mload(0x40)\n      dup1\n      swap2\n      sub\n      swap1\n      return\n        /* \"Struct.sol\":448:658  function change(uint _roll,string memory _name) public \r... */\n    tag_4:\n      tag_9\n      0x04\n      dup1\n      calldatasize\n      sub\n      dup2\n      add\n      swap1\n      tag_10\n      swap2\n      swap1\n      tag_11\n      jump\t// in\n    tag_10:\n      tag_12\n      jump\t// in\n    tag_9:\n      stop\n        /* \"Struct.sol\":304:321  student public s1 */\n    tag_6:\n      0x00\n      dup1\n      0x00\n      add\n      sload\n      swap1\n      dup1\n      0x01\n      add\n      dup1\n      sload\n      tag_13\n      swap1\n      tag_14\n      jump\t// in\n    tag_13:\n      dup1\n      0x1f\n      add\n      0x20\n      dup1\n      swap2\n      div\n      mul\n      0x20\n      add\n      mload(0x40)\n      swap1\n      dup2\n      add\n      0x40\n      mstore\n      dup1\n      swap3\n      swap2\n      swap1\n      dup2\n      dup2\n      mstore\n      0x20\n      add\n      dup3\n      dup1\n      sload\n      tag_15\n      swap1\n      tag_14\n      jump\t// in\n    tag_15:\n      dup1\n      iszero\n      tag_16\n      jumpi\n      dup1\n      0x1f\n      lt\n      tag_17\n      jumpi\n      0x0100\n      dup1\n      dup4\n      sload\n      div\n      mul\n      dup4\n      mstore\n      swap2\n      0x20\n      add\n      swap2\n      jump(tag_16)\n    tag_17:\n      dup3\n      add\n      swap2\n      swap1\n      0x00\n      mstore\n      keccak256(0x00, 0x20)\n      swap1\n    tag_18:\n      dup2\n      sload\n      dup2\n      mstore\n      swap1\n      0x01\n      add\n      swap1\n      0x20\n      add\n      dup1\n      dup4\n      gt\n      tag_18\n      jumpi\n      dup3\n      swap1\n      sub\n      0x1f\n      and\n      dup3\n      add\n      swap2\n    tag_16:\n      pop\n      pop\n      pop\n      pop\n      pop\n      swap1\n      pop\n      dup3\n      jump\t// out\n        /* \"Struct.sol\":448:658  function change(uint _roll,string memory _name) public \r... */\n    tag_12:\n        /* \"Struct.sol\":520:546  student memory new_student */\n      0x00\n        /* \"Struct.sol\":549:619  student({\r... */\n      mload(0x40)\n      dup1\n      0x40\n      add\n      0x40\n      mstore\n      dup1\n        /* \"Struct.sol\":577:582  _roll */\n      dup5\n        /* \"Struct.sol\":549:619  student({\r... */\n      dup2\n      mstore\n      0x20\n      add\n        /* \"Struct.sol\":602:607  _name */\n      dup4\n        /* \"Struct.sol\":549:619  student({\r... */\n      dup2\n      mstore\n      pop\n        /* \"Struct.sol\":520:619  student memory new_student = student({\r... */\n      swap1\n      pop\n        /* \"Struct.sol\":638:649  new_student */\n      dup1\n        /* \"Struct.sol\":633:635  s1 */\n      0x00\n        /* \"Struct.sol\":633:649  s1 = new_student */\n      dup1\n      dup3\n      add\n      mload\n      dup2\n      0x00\n      add\n      sstore\n      0x20\n      dup3\n      add\n      mload\n      dup2\n      0x01\n      add\n      swap1\n      dup1\n      mload\n      swap1\n      0x20\n      add\n      swap1\n      tag_20\n      swap3\n      swap2\n      swap1\n      tag_21\n      jump\t// in\n    tag_20:\n      pop\n      swap1\n      pop\n      pop\n        /* \"Struct.sol\":448:658  function change(uint _roll,string memory _name) public \r... */\n      pop\n      pop\n      pop\n      jump\t// out\n    tag_21:\n      dup3\n      dup1\n      sload\n      tag_22\n      swap1\n      tag_14\n      jump\t// in\n    tag_22:\n      swap1\n      0x00\n      mstore\n      keccak256(0x00, 0x20)\n      swap1\n      0x1f\n      add\n      0x20\n      swap1\n      div\n      dup2\n      add\n      swap3\n      dup3\n      tag_24\n      jumpi\n      0x00\n      dup6\n      sstore\n      jump(tag_23)\n    tag_24:\n      dup3\n      0x1f\n      lt\n      tag_25\n      jumpi\n      dup1\n      mload\n      not(0xff)\n      and\n      dup4\n      dup1\n      add\n      or\n      dup6\n      sstore\n      jump(tag_23)\n    tag_25:\n      dup3\n      dup1\n      add\n      0x01\n      add\n      dup6\n      sstore\n      dup3\n      iszero\n      tag_23\n      jumpi\n      swap2\n      dup3\n      add\n    tag_26:\n      dup3\n      dup2\n      gt\n      iszero\n      tag_27\n      jumpi\n      dup3\n      mload\n      dup3\n      sstore\n      swap2\n      0x20\n      add\n      swap2\n      swap1\n      0x01\n      add\n      swap1\n      jump(tag_26)\n    tag_27:\n    tag_23:\n      pop\n      swap1\n      pop\n      tag_28\n      swap2\n      swap1\n      tag_29\n      jump\t// in\n    tag_28:\n      pop\n      swap1\n      jump\t// out\n    tag_29:\n    tag_30:\n      dup1\n      dup3\n      gt\n      iszero\n      tag_31\n      jumpi\n      0x00\n      dup2\n      0x00\n      swap1\n      sstore\n      pop\n      0x01\n      add\n      jump(tag_30)\n    tag_31:\n      pop\n      swap1\n      jump\t// out\n        /* \"#utility.yul\":7:351   */\n    tag_33:\n      0x00\n        /* \"#utility.yul\":110:175   */\n      tag_35\n        /* \"#utility.yul\":125:174   */\n      tag_36\n        /* \"#utility.yul\":167:173   */\n      dup5\n        /* \"#utility.yul\":125:174   */\n      tag_37\n      jump\t// in\n    tag_36:\n        /* \"#utility.yul\":110:175   */\n      tag_38\n      jump\t// in\n    tag_35:\n        /* \"#utility.yul\":101:175   */\n      swap1\n      pop\n        /* \"#utility.yul\":198:204   */\n      dup3\n        /* \"#utility.yul\":191:196   */\n      dup2\n        /* \"#utility.yul\":184:205   */\n      mstore\n        /* \"#utility.yul\":236:240   */\n      0x20\n        /* \"#utility.yul\":229:234   */\n      dup2\n        /* \"#utility.yul\":225:241   */\n      add\n        /* \"#utility.yul\":274:277   */\n      dup5\n        /* \"#utility.yul\":265:271   */\n      dup5\n        /* \"#utility.yul\":260:263   */\n      dup5\n        /* \"#utility.yul\":256:272   */\n      add\n        /* \"#utility.yul\":253:278   */\n      gt\n        /* \"#utility.yul\":250:252   */\n      iszero\n      tag_39\n      jumpi\n        /* \"#utility.yul\":291:292   */\n      0x00\n        /* \"#utility.yul\":288:289   */\n      dup1\n        /* \"#utility.yul\":281:293   */\n      revert\n        /* \"#utility.yul\":250:252   */\n    tag_39:\n        /* \"#utility.yul\":304:345   */\n      tag_40\n        /* \"#utility.yul\":338:344   */\n      dup5\n        /* \"#utility.yul\":333:336   */\n      dup3\n        /* \"#utility.yul\":328:331   */\n      dup6\n        /* \"#utility.yul\":304:345   */\n      tag_41\n      jump\t// in\n    tag_40:\n        /* \"#utility.yul\":91:351   */\n      pop\n      swap4\n      swap3\n      pop\n      pop\n      pop\n      jump\t// out\n        /* \"#utility.yul\":371:644   */\n    tag_42:\n      0x00\n        /* \"#utility.yul\":476:479   */\n      dup3\n        /* \"#utility.yul\":469:473   */\n      0x1f\n        /* \"#utility.yul\":461:467   */\n      dup4\n        /* \"#utility.yul\":457:474   */\n      add\n        /* \"#utility.yul\":453:480   */\n      slt\n        /* \"#utility.yul\":443:445   */\n      tag_44\n      jumpi\n        /* \"#utility.yul\":494:495   */\n      0x00\n        /* \"#utility.yul\":491:492   */\n      dup1\n        /* \"#utility.yul\":484:496   */\n      revert\n        /* \"#utility.yul\":443:445   */\n    tag_44:\n        /* \"#utility.yul\":534:540   */\n      dup2\n        /* \"#utility.yul\":521:541   */\n      calldataload\n        /* \"#utility.yul\":559:638   */\n      tag_45\n        /* \"#utility.yul\":634:637   */\n      dup5\n        /* \"#utility.yul\":626:632   */\n      dup3\n        /* \"#utility.yul\":619:623   */\n      0x20\n        /* \"#utility.yul\":611:617   */\n      dup7\n        /* \"#utility.yul\":607:624   */\n      add\n        /* \"#utility.yul\":559:638   */\n      tag_33\n      jump\t// in\n    tag_45:\n        /* \"#utility.yul\":550:638   */\n      swap2\n      pop\n        /* \"#utility.yul\":433:644   */\n      pop\n      swap3\n      swap2\n      pop\n      pop\n      jump\t// out\n        /* \"#utility.yul\":650:789   */\n    tag_46:\n      0x00\n        /* \"#utility.yul\":734:740   */\n      dup2\n        /* \"#utility.yul\":721:741   */\n      calldataload\n        /* \"#utility.yul\":712:741   */\n      swap1\n      pop\n        /* \"#utility.yul\":750:783   */\n      tag_48\n        /* \"#utility.yul\":777:782   */\n      dup2\n        /* \"#utility.yul\":750:783   */\n      tag_49\n      jump\t// in\n    tag_48:\n        /* \"#utility.yul\":702:789   */\n      swap3\n      swap2\n      pop\n      pop\n      jump\t// out\n        /* \"#utility.yul\":795:1315   */\n    tag_11:\n      0x00\n      dup1\n        /* \"#utility.yul\":930:932   */\n      0x40\n        /* \"#utility.yul\":918:927   */\n      dup4\n        /* \"#utility.yul\":909:916   */\n      dup6\n        /* \"#utility.yul\":905:928   */\n      sub\n        /* \"#utility.yul\":901:933   */\n      slt\n        /* \"#utility.yul\":898:900   */\n      iszero\n      tag_51\n      jumpi\n        /* \"#utility.yul\":946:947   */\n      0x00\n        /* \"#utility.yul\":943:944   */\n      dup1\n        /* \"#utility.yul\":936:948   */\n      revert\n        /* \"#utility.yul\":898:900   */\n    tag_51:\n        /* \"#utility.yul\":989:990   */\n      0x00\n        /* \"#utility.yul\":1014:1067   */\n      tag_52\n        /* \"#utility.yul\":1059:1066   */\n      dup6\n        /* \"#utility.yul\":1050:1056   */\n      dup3\n        /* \"#utility.yul\":1039:1048   */\n      dup7\n        /* \"#utility.yul\":1035:1057   */\n      add\n        /* \"#utility.yul\":1014:1067   */\n      tag_46\n      jump\t// in\n    tag_52:\n        /* \"#utility.yul\":1004:1067   */\n      swap3\n      pop\n        /* \"#utility.yul\":960:1077   */\n      pop\n        /* \"#utility.yul\":1144:1146   */\n      0x20\n        /* \"#utility.yul\":1133:1142   */\n      dup4\n        /* \"#utility.yul\":1129:1147   */\n      add\n        /* \"#utility.yul\":1116:1148   */\n      calldataload\n        /* \"#utility.yul\":1175:1193   */\n      0xffffffffffffffff\n        /* \"#utility.yul\":1167:1173   */\n      dup2\n        /* \"#utility.yul\":1164:1194   */\n      gt\n        /* \"#utility.yul\":1161:1163   */\n      iszero\n      tag_53\n      jumpi\n        /* \"#utility.yul\":1207:1208   */\n      0x00\n        /* \"#utility.yul\":1204:1205   */\n      dup1\n        /* \"#utility.yul\":1197:1209   */\n      revert\n        /* \"#utility.yul\":1161:1163   */\n    tag_53:\n        /* \"#utility.yul\":1235:1298   */\n      tag_54\n        /* \"#utility.yul\":1290:1297   */\n      dup6\n        /* \"#utility.yul\":1281:1287   */\n      dup3\n        /* \"#utility.yul\":1270:1279   */\n      dup7\n        /* \"#utility.yul\":1266:1288   */\n      add\n        /* \"#utility.yul\":1235:1298   */\n      tag_42\n      jump\t// in\n    tag_54:\n        /* \"#utility.yul\":1225:1298   */\n      swap2\n      pop\n        /* \"#utility.yul\":1087:1308   */\n      pop\n        /* \"#utility.yul\":888:1315   */\n      swap3\n      pop\n      swap3\n      swap1\n      pop\n      jump\t// out\n        /* \"#utility.yul\":1321:1685   */\n    tag_55:\n      0x00\n        /* \"#utility.yul\":1437:1476   */\n      tag_57\n        /* \"#utility.yul\":1470:1475   */\n      dup3\n        /* \"#utility.yul\":1437:1476   */\n      tag_58\n      jump\t// in\n    tag_57:\n        /* \"#utility.yul\":1492:1563   */\n      tag_59\n        /* \"#utility.yul\":1556:1562   */\n      dup2\n        /* \"#utility.yul\":1551:1554   */\n      dup6\n        /* \"#utility.yul\":1492:1563   */\n      tag_60\n      jump\t// in\n    tag_59:\n        /* \"#utility.yul\":1485:1563   */\n      swap4\n      pop\n        /* \"#utility.yul\":1572:1624   */\n      tag_61\n        /* \"#utility.yul\":1617:1623   */\n      dup2\n        /* \"#utility.yul\":1612:1615   */\n      dup6\n        /* \"#utility.yul\":1605:1609   */\n      0x20\n        /* \"#utility.yul\":1598:1603   */\n      dup7\n        /* \"#utility.yul\":1594:1610   */\n      add\n        /* \"#utility.yul\":1572:1624   */\n      tag_62\n      jump\t// in\n    tag_61:\n        /* \"#utility.yul\":1649:1678   */\n      tag_63\n        /* \"#utility.yul\":1671:1677   */\n      dup2\n        /* \"#utility.yul\":1649:1678   */\n      tag_64\n      jump\t// in\n    tag_63:\n        /* \"#utility.yul\":1644:1647   */\n      dup5\n        /* \"#utility.yul\":1640:1679   */\n      add\n        /* \"#utility.yul\":1633:1679   */\n      swap2\n      pop\n        /* \"#utility.yul\":1413:1685   */\n      pop\n      swap3\n      swap2\n      pop\n      pop\n      jump\t// out\n        /* \"#utility.yul\":1691:1809   */\n    tag_65:\n        /* \"#utility.yul\":1778:1802   */\n      tag_67\n        /* \"#utility.yul\":1796:1801   */\n      dup2\n        /* \"#utility.yul\":1778:1802   */\n      tag_68\n      jump\t// in\n    tag_67:\n        /* \"#utility.yul\":1773:1776   */\n      dup3\n        /* \"#utility.yul\":1766:1803   */\n      mstore\n        /* \"#utility.yul\":1756:1809   */\n      pop\n      pop\n      jump\t// out\n        /* \"#utility.yul\":1815:2238   */\n    tag_8:\n      0x00\n        /* \"#utility.yul\":1994:1996   */\n      0x40\n        /* \"#utility.yul\":1983:1992   */\n      dup3\n        /* \"#utility.yul\":1979:1997   */\n      add\n        /* \"#utility.yul\":1971:1997   */\n      swap1\n      pop\n        /* \"#utility.yul\":2007:2078   */\n      tag_70\n        /* \"#utility.yul\":2075:2076   */\n      0x00\n        /* \"#utility.yul\":2064:2073   */\n      dup4\n        /* \"#utility.yul\":2060:2077   */\n      add\n        /* \"#utility.yul\":2051:2057   */\n      dup6\n        /* \"#utility.yul\":2007:2078   */\n      tag_65\n      jump\t// in\n    tag_70:\n        /* \"#utility.yul\":2125:2134   */\n      dup2\n        /* \"#utility.yul\":2119:2123   */\n      dup2\n        /* \"#utility.yul\":2115:2135   */\n      sub\n        /* \"#utility.yul\":2110:2112   */\n      0x20\n        /* \"#utility.yul\":2099:2108   */\n      dup4\n        /* \"#utility.yul\":2095:2113   */\n      add\n        /* \"#utility.yul\":2088:2136   */\n      mstore\n        /* \"#utility.yul\":2153:2231   */\n      tag_71\n        /* \"#utility.yul\":2226:2230   */\n      dup2\n        /* \"#utility.yul\":2217:2223   */\n      dup5\n        /* \"#utility.yul\":2153:2231   */\n      tag_55\n      jump\t// in\n    tag_71:\n        /* \"#utility.yul\":2145:2231   */\n      swap1\n      pop\n        /* \"#utility.yul\":1961:2238   */\n      swap4\n      swap3\n      pop\n      pop\n      pop\n      jump\t// out\n        /* \"#utility.yul\":2244:2527   */\n    tag_38:\n      0x00\n        /* \"#utility.yul\":2310:2312   */\n      0x40\n        /* \"#utility.yul\":2304:2313   */\n      mload\n        /* \"#utility.yul\":2294:2313   */\n      swap1\n      pop\n        /* \"#utility.yul\":2352:2356   */\n      dup2\n        /* \"#utility.yul\":2344:2350   */\n      dup2\n        /* \"#utility.yul\":2340:2357   */\n      add\n        /* \"#utility.yul\":2459:2465   */\n      dup2\n        /* \"#utility.yul\":2447:2457   */\n      dup2\n        /* \"#utility.yul\":2444:2466   */\n      lt\n        /* \"#utility.yul\":2423:2441   */\n      0xffffffffffffffff\n        /* \"#utility.yul\":2411:2421   */\n      dup3\n        /* \"#utility.yul\":2408:2442   */\n      gt\n        /* \"#utility.yul\":2405:2467   */\n      or\n        /* \"#utility.yul\":2402:2404   */\n      iszero\n      tag_73\n      jumpi\n        /* \"#utility.yul\":2470:2488   */\n      tag_74\n      tag_75\n      jump\t// in\n    tag_74:\n        /* \"#utility.yul\":2402:2404   */\n    tag_73:\n        /* \"#utility.yul\":2510:2520   */\n      dup1\n        /* \"#utility.yul\":2506:2508   */\n      0x40\n        /* \"#utility.yul\":2499:2521   */\n      mstore\n        /* \"#utility.yul\":2284:2527   */\n      pop\n      swap2\n      swap1\n      pop\n      jump\t// out\n        /* \"#utility.yul\":2533:2865   */\n    tag_37:\n      0x00\n        /* \"#utility.yul\":2685:2703   */\n      0xffffffffffffffff\n        /* \"#utility.yul\":2677:2683   */\n      dup3\n        /* \"#utility.yul\":2674:2704   */\n      gt\n        /* \"#utility.yul\":2671:2673   */\n      iszero\n      tag_77\n      jumpi\n        /* \"#utility.yul\":2707:2725   */\n      tag_78\n      tag_75\n      jump\t// in\n    tag_78:\n        /* \"#utility.yul\":2671:2673   */\n    tag_77:\n        /* \"#utility.yul\":2792:2796   */\n      0x1f\n        /* \"#utility.yul\":2788:2797   */\n      not\n        /* \"#utility.yul\":2781:2785   */\n      0x1f\n        /* \"#utility.yul\":2773:2779   */\n      dup4\n        /* \"#utility.yul\":2769:2786   */\n      add\n        /* \"#utility.yul\":2765:2798   */\n      and\n        /* \"#utility.yul\":2757:2798   */\n      swap1\n      pop\n        /* \"#utility.yul\":2853:2857   */\n      0x20\n        /* \"#utility.yul\":2847:2851   */\n      dup2\n        /* \"#utility.yul\":2843:2858   */\n      add\n        /* \"#utility.yul\":2835:2858   */\n      swap1\n      pop\n        /* \"#utility.yul\":2600:2865   */\n      swap2\n      swap1\n      pop\n      jump\t// out\n        /* \"#utility.yul\":2871:2970   */\n    tag_58:\n      0x00\n        /* \"#utility.yul\":2957:2962   */\n      dup2\n        /* \"#utility.yul\":2951:2963   */\n      mload\n        /* \"#utility.yul\":2941:2963   */\n      swap1\n      pop\n        /* \"#utility.yul\":2930:2970   */\n      swap2\n      swap1\n      pop\n      jump\t// out\n        /* \"#utility.yul\":2976:3145   */\n    tag_60:\n      0x00\n        /* \"#utility.yul\":3094:3100   */\n      dup3\n        /* \"#utility.yul\":3089:3092   */\n      dup3\n        /* \"#utility.yul\":3082:3101   */\n      mstore\n        /* \"#utility.yul\":3134:3138   */\n      0x20\n        /* \"#utility.yul\":3129:3132   */\n      dup3\n        /* \"#utility.yul\":3125:3139   */\n      add\n        /* \"#utility.yul\":3110:3139   */\n      swap1\n      pop\n        /* \"#utility.yul\":3072:3145   */\n      swap3\n      swap2\n      pop\n      pop\n      jump\t// out\n        /* \"#utility.yul\":3151:3228   */\n    tag_68:\n      0x00\n        /* \"#utility.yul\":3217:3222   */\n      dup2\n        /* \"#utility.yul\":3206:3222   */\n      swap1\n      pop\n        /* \"#utility.yul\":3196:3228   */\n      swap2\n      swap1\n      pop\n      jump\t// out\n        /* \"#utility.yul\":3234:3388   */\n    tag_41:\n        /* \"#utility.yul\":3318:3324   */\n      dup3\n        /* \"#utility.yul\":3313:3316   */\n      dup2\n        /* \"#utility.yul\":3308:3311   */\n      dup4\n        /* \"#utility.yul\":3295:3325   */\n      calldatacopy\n        /* \"#utility.yul\":3380:3381   */\n      0x00\n        /* \"#utility.yul\":3371:3377   */\n      dup4\n        /* \"#utility.yul\":3366:3369   */\n      dup4\n        /* \"#utility.yul\":3362:3378   */\n      add\n        /* \"#utility.yul\":3355:3382   */\n      mstore\n        /* \"#utility.yul\":3285:3388   */\n      pop\n      pop\n      pop\n      jump\t// out\n        /* \"#utility.yul\":3394:3701   */\n    tag_62:\n        /* \"#utility.yul\":3462:3463   */\n      0x00\n        /* \"#utility.yul\":3472:3585   */\n    tag_84:\n        /* \"#utility.yul\":3486:3492   */\n      dup4\n        /* \"#utility.yul\":3483:3484   */\n      dup2\n        /* \"#utility.yul\":3480:3493   */\n      lt\n        /* \"#utility.yul\":3472:3585   */\n      iszero\n      tag_86\n      jumpi\n        /* \"#utility.yul\":3571:3572   */\n      dup1\n        /* \"#utility.yul\":3566:3569   */\n      dup3\n        /* \"#utility.yul\":3562:3573   */\n      add\n        /* \"#utility.yul\":3556:3574   */\n      mload\n        /* \"#utility.yul\":3552:3553   */\n      dup2\n        /* \"#utility.yul\":3547:3550   */\n      dup5\n        /* \"#utility.yul\":3543:3554   */\n      add\n        /* \"#utility.yul\":3536:3575   */\n      mstore\n        /* \"#utility.yul\":3508:3510   */\n      0x20\n        /* \"#utility.yul\":3505:3506   */\n      dup2\n        /* \"#utility.yul\":3501:3511   */\n      add\n        /* \"#utility.yul\":3496:3511   */\n      swap1\n      pop\n        /* \"#utility.yul\":3472:3585   */\n      jump(tag_84)\n    tag_86:\n        /* \"#utility.yul\":3603:3609   */\n      dup4\n        /* \"#utility.yul\":3600:3601   */\n      dup2\n        /* \"#utility.yul\":3597:3610   */\n      gt\n        /* \"#utility.yul\":3594:3596   */\n      iszero\n      tag_87\n      jumpi\n        /* \"#utility.yul\":3683:3684   */\n      0x00\n        /* \"#utility.yul\":3674:3680   */\n      dup5\n        /* \"#utility.yul\":3669:3672   */\n      dup5\n        /* \"#utility.yul\":3665:3681   */\n      add\n        /* \"#utility.yul\":3658:3685   */\n      mstore\n        /* \"#utility.yul\":3594:3596   */\n    tag_87:\n        /* \"#utility.yul\":3443:3701   */\n      pop\n      pop\n      pop\n      pop\n      jump\t// out\n        /* \"#utility.yul\":3707:4027   */\n    tag_14:\n      0x00\n        /* \"#utility.yul\":3788:3789   */\n      0x02\n        /* \"#utility.yul\":3782:3786   */\n      dup3\n        /* \"#utility.yul\":3778:3790   */\n      div\n        /* \"#utility.yul\":3768:3790   */\n      swap1\n      pop\n        /* \"#utility.yul\":3835:3836   */\n      0x01\n        /* \"#utility.yul\":3829:3833   */\n      dup3\n        /* \"#utility.yul\":3825:3837   */\n      and\n        /* \"#utility.yul\":3856:3874   */\n      dup1\n        /* \"#utility.yul\":3846:3848   */\n      tag_89\n      jumpi\n        /* \"#utility.yul\":3912:3916   */\n      0x7f\n        /* \"#utility.yul\":3904:3910   */\n      dup3\n        /* \"#utility.yul\":3900:3917   */\n      and\n        /* \"#utility.yul\":3890:3917   */\n      swap2\n      pop\n        /* \"#utility.yul\":3846:3848   */\n    tag_89:\n        /* \"#utility.yul\":3974:3976   */\n      0x20\n        /* \"#utility.yul\":3966:3972   */\n      dup3\n        /* \"#utility.yul\":3963:3977   */\n      lt\n        /* \"#utility.yul\":3943:3961   */\n      dup2\n        /* \"#utility.yul\":3940:3978   */\n      eq\n        /* \"#utility.yul\":3937:3939   */\n      iszero\n      tag_90\n      jumpi\n        /* \"#utility.yul\":3993:4011   */\n      tag_91\n      tag_92\n      jump\t// in\n    tag_91:\n        /* \"#utility.yul\":3937:3939   */\n    tag_90:\n        /* \"#utility.yul\":3758:4027   */\n      pop\n      swap2\n      swap1\n      pop\n      jump\t// out\n        /* \"#utility.yul\":4033:4213   */\n    tag_92:\n        /* \"#utility.yul\":4081:4158   */\n      0x4e487b7100000000000000000000000000000000000000000000000000000000\n        /* \"#utility.yul\":4078:4079   */\n      0x00\n        /* \"#utility.yul\":4071:4159   */\n      mstore\n        /* \"#utility.yul\":4178:4182   */\n      0x22\n        /* \"#utility.yul\":4175:4176   */\n      0x04\n        /* \"#utility.yul\":4168:4183   */\n      mstore\n        /* \"#utility.yul\":4202:4206   */\n      0x24\n        /* \"#utility.yul\":4199:4200   */\n      0x00\n        /* \"#utility.yul\":4192:4207   */\n      revert\n        /* \"#utility.yul\":4219:4399   */\n    tag_75:\n        /* \"#utility.yul\":4267:4344   */\n      0x4e487b7100000000000000000000000000000000000000000000000000000000\n        /* \"#utility.yul\":4264:4265   */\n      0x00\n        /* \"#utility.yul\":4257:4345   */\n      mstore\n        /* \"#utility.yul\":4364:4368   */\n      0x41\n        /* \"#utility.yul\":4361:4362   */\n      0x04\n        /* \"#utility.yul\":4354:4369   */\n      mstore\n        /* \"#utility.yul\":4388:4392   */\n      0x24\n        /* \"#utility.yul\":4385:4386   */\n      0x00\n        /* \"#utility.yul\":4378:4393   */\n      revert\n        /* \"#utility.yul\":4405:4507   */\n    tag_64:\n      0x00\n        /* \"#utility.yul\":4497:4499   */\n      0x1f\n        /* \"#utility.yul\":4493:4500   */\n      not\n        /* \"#utility.yul\":4488:4490   */\n      0x1f\n        /* \"#utility.yul\":4481:4486   */\n      dup4\n        /* \"#utility.yul\":4477:4491   */\n      add\n        /* \"#utility.yul\":4473:4501   */\n      and\n        /* \"#utility.yul\":4463:4501   */\n      swap1\n      pop\n        /* \"#utility.yul\":4453:4507   */\n      swap2\n      swap1\n      pop\n      jump\t// out\n        /* \"#utility.yul\":4513:4635   */\n    tag_49:\n        /* \"#utility.yul\":4586:4610   */\n      tag_97\n        /* \"#utility.yul\":4604:4609   */\n      dup2\n        /* \"#utility.yul\":4586:4610   */\n      tag_68\n      jump\t// in\n    tag_97:\n        /* \"#utility.yul\":4579:4584   */\n      dup2\n        /* \"#utility.yul\":4576:4611   */\n      eq\n        /* \"#utility.yul\":4566:4568   */\n      tag_98\n      jumpi\n        /* \"#utility.yul\":4625:4626   */\n      0x00\n        /* \"#utility.yul\":4622:4623   */\n      dup1\n        /* \"#utility.yul\":4615:4627   */\n      revert\n        /* \"#utility.yul\":4566:4568   */\n    tag_98:\n        /* \"#utility.yul\":4556:4635   */\n      pop\n      jump\t// out\n\n    auxdata: 0xa2646970667358221220de7f08f65f06a5f15def8b207cac3f34f8267a9e52e2ad233ea243e0c094cc1b64736f6c63430008000033\n}\n",
				"bytecode": {
					"linkReferences": {},
					"object": "60806040523480156200001157600080fd5b50604051620008593803806200085983398181016040528101906200003791906200019d565b81600080018190555080600060010190805190602001906200005b92919062000064565b5050506200034c565b82805462000072906200029e565b90600052602060002090601f016020900481019282620000965760008555620000e2565b82601f10620000b157805160ff1916838001178555620000e2565b82800160010185558215620000e2579182015b82811115620000e1578251825591602001919060010190620000c4565b5b509050620000f19190620000f5565b5090565b5b8082111562000110576000816000905550600101620000f6565b5090565b60006200012b62000125846200022b565b620001f7565b9050828152602081018484840111156200014457600080fd5b6200015184828562000268565b509392505050565b600082601f8301126200016b57600080fd5b81516200017d84826020860162000114565b91505092915050565b600081519050620001978162000332565b92915050565b60008060408385031215620001b157600080fd5b6000620001c18582860162000186565b925050602083015167ffffffffffffffff811115620001df57600080fd5b620001ed8582860162000159565b9150509250929050565b6000604051905081810181811067ffffffffffffffff8211171562000221576200022062000303565b5b8060405250919050565b600067ffffffffffffffff82111562000249576200024862000303565b5b601f19601f8301169050602081019050919050565b6000819050919050565b60005b83811015620002885780820151818401526020810190506200026b565b8381111562000298576000848401525b50505050565b60006002820490506001821680620002b757607f821691505b60208210811415620002ce57620002cd620002d4565b5b50919050565b7f4e487b7100000000000000000000000000000000000000000000000000000000600052602260045260246000fd5b7f4e487b7100000000000000000000000000000000000000000000000000000000600052604160045260246000fd5b6200033d816200025e565b81146200034957600080fd5b50565b6104fd806200035c6000396000f3fe608060405234801561001057600080fd5b50600436106100365760003560e01c80636cc014de1461003b578063c75226ec1461005a575b600080fd5b610043610076565b604051610051929190610316565b60405180910390f35b610074600480360381019061006f919061027a565b610110565b005b600080600001549080600101805461008d9061040f565b80601f01602080910402602001604051908101604052809291908181526020018280546100b99061040f565b80156101065780601f106100db57610100808354040283529160200191610106565b820191906000526020600020905b8154815290600101906020018083116100e957829003601f168201915b5050505050905082565b60006040518060400160405280848152602001838152509050806000808201518160000155602082015181600101908051906020019061015192919061015a565b50905050505050565b8280546101669061040f565b90600052602060002090601f01602090048101928261018857600085556101cf565b82601f106101a157805160ff19168380011785556101cf565b828001600101855582156101cf579182015b828111156101ce5782518255916020019190600101906101b3565b5b5090506101dc91906101e0565b5090565b5b808211156101f95760008160009055506001016101e1565b5090565b600061021061020b84610377565b610346565b90508281526020810184848401111561022857600080fd5b6102338482856103cd565b509392505050565b600082601f83011261024c57600080fd5b813561025c8482602086016101fd565b91505092915050565b600081359050610274816104b0565b92915050565b6000806040838503121561028d57600080fd5b600061029b85828601610265565b925050602083013567ffffffffffffffff8111156102b857600080fd5b6102c48582860161023b565b9150509250929050565b60006102d9826103a7565b6102e381856103b2565b93506102f38185602086016103dc565b6102fc8161049f565b840191505092915050565b610310816103c3565b82525050565b600060408201905061032b6000830185610307565b818103602083015261033d81846102ce565b90509392505050565b6000604051905081810181811067ffffffffffffffff8211171561036d5761036c610470565b5b8060405250919050565b600067ffffffffffffffff82111561039257610391610470565b5b601f19601f8301169050602081019050919050565b600081519050919050565b600082825260208201905092915050565b6000819050919050565b82818337600083830152505050565b60005b838110156103fa5780820151818401526020810190506103df565b83811115610409576000848401525b50505050565b6000600282049050600182168061042757607f821691505b6020821081141561043b5761043a610441565b5b50919050565b7f4e487b7100000000000000000000000000000000000000000000000000000000600052602260045260246000fd5b7f4e487b7100000000000000000000000000000000000000000000000000000000600052604160045260246000fd5b6000601f19601f8301169050919050565b6104b9816103c3565b81146104c457600080fd5b5056fea2646970667358221220de7f08f65f06a5f15def8b207cac3f34f8267a9e52e2ad233ea243e0c094cc1b64736f6c63430008000033",
					"opcodes": "PUSH1 0x80 PUSH1 0x40 MSTORE CALLVALUE DUP1 ISZERO PUSH3 0x11 JUMPI PUSH1 0x0 DUP1 REVERT JUMPDEST POP PUSH1 0x40 MLOAD PUSH3 0x859 CODESIZE SUB DUP1 PUSH3 0x859 DUP4 CODECOPY DUP2 DUP2 ADD PUSH1 0x40 MSTORE DUP2 ADD SWAP1 PUSH3 0x37 SWAP2 SWAP1 PUSH3 0x19D JUMP JUMPDEST DUP2 PUSH1 0x0 DUP1 ADD DUP2 SWAP1 SSTORE POP DUP1 PUSH1 0x0 PUSH1 0x1 ADD SWAP1 DUP1 MLOAD SWAP1 PUSH1 0x20 ADD SWAP1 PUSH3 0x5B SWAP3 SWAP2 SWAP1 PUSH3 0x64 JUMP JUMPDEST POP POP POP PUSH3 0x34C JUMP JUMPDEST DUP3 DUP1 SLOAD PUSH3 0x72 SWAP1 PUSH3 0x29E JUMP JUMPDEST SWAP1 PUSH1 0x0 MSTORE PUSH1 0x20 PUSH1 0x0 KECCAK256 SWAP1 PUSH1 0x1F ADD PUSH1 0x20 SWAP1 DIV DUP2 ADD SWAP3 DUP3 PUSH3 0x96 JUMPI PUSH1 0x0 DUP6 SSTORE PUSH3 0xE2 JUMP JUMPDEST DUP3 PUSH1 0x1F LT PUSH3 0xB1 JUMPI DUP1 MLOAD PUSH1 0xFF NOT AND DUP4 DUP1 ADD OR DUP6 SSTORE PUSH3 0xE2 JUMP JUMPDEST DUP3 DUP1 ADD PUSH1 0x1 ADD DUP6 SSTORE DUP3 ISZERO PUSH3 0xE2 JUMPI SWAP2 DUP3 ADD JUMPDEST DUP3 DUP2 GT ISZERO PUSH3 0xE1 JUMPI DUP3 MLOAD DUP3 SSTORE SWAP2 PUSH1 0x20 ADD SWAP2 SWAP1 PUSH1 0x1 ADD SWAP1 PUSH3 0xC4 JUMP JUMPDEST JUMPDEST POP SWAP1 POP PUSH3 0xF1 SWAP2 SWAP1 PUSH3 0xF5 JUMP JUMPDEST POP SWAP1 JUMP JUMPDEST JUMPDEST DUP1 DUP3 GT ISZERO PUSH3 0x110 JUMPI PUSH1 0x0 DUP2 PUSH1 0x0 SWAP1 SSTORE POP PUSH1 0x1 ADD PUSH3 0xF6 JUMP JUMPDEST POP SWAP1 JUMP JUMPDEST PUSH1 0x0 PUSH3 0x12B PUSH3 0x125 DUP5 PUSH3 0x22B JUMP JUMPDEST PUSH3 0x1F7 JUMP JUMPDEST SWAP1 POP DUP3 DUP2 MSTORE PUSH1 0x20 DUP2 ADD DUP5 DUP5 DUP5 ADD GT ISZERO PUSH3 0x144 JUMPI PUSH1 0x0 DUP1 REVERT JUMPDEST PUSH3 0x151 DUP5 DUP3 DUP6 PUSH3 0x268 JUMP JUMPDEST POP SWAP4 SWAP3 POP POP POP JUMP JUMPDEST PUSH1 0x0 DUP3 PUSH1 0x1F DUP4 ADD SLT PUSH3 0x16B JUMPI PUSH1 0x0 DUP1 REVERT JUMPDEST DUP2 MLOAD PUSH3 0x17D DUP5 DUP3 PUSH1 0x20 DUP7 ADD PUSH3 0x114 JUMP JUMPDEST SWAP2 POP POP SWAP3 SWAP2 POP POP JUMP JUMPDEST PUSH1 0x0 DUP2 MLOAD SWAP1 POP PUSH3 0x197 DUP2 PUSH3 0x332 JUMP JUMPDEST SWAP3 SWAP2 POP POP JUMP JUMPDEST PUSH1 0x0 DUP1 PUSH1 0x40 DUP4 DUP6 SUB SLT ISZERO PUSH3 0x1B1 JUMPI PUSH1 0x0 DUP1 REVERT JUMPDEST PUSH1 0x0 PUSH3 0x1C1 DUP6 DUP3 DUP7 ADD PUSH3 0x186 JUMP JUMPDEST SWAP3 POP POP PUSH1 0x20 DUP4 ADD MLOAD PUSH8 0xFFFFFFFFFFFFFFFF DUP2 GT ISZERO PUSH3 0x1DF JUMPI PUSH1 0x0 DUP1 REVERT JUMPDEST PUSH3 0x1ED DUP6 DUP3 DUP7 ADD PUSH3 0x159 JUMP JUMPDEST SWAP2 POP POP SWAP3 POP SWAP3 SWAP1 POP JUMP JUMPDEST PUSH1 0x0 PUSH1 0x40 MLOAD SWAP1 POP DUP2 DUP2 ADD DUP2 DUP2 LT PUSH8 0xFFFFFFFFFFFFFFFF DUP3 GT OR ISZERO PUSH3 0x221 JUMPI PUSH3 0x220 PUSH3 0x303 JUMP JUMPDEST JUMPDEST DUP1 PUSH1 0x40 MSTORE POP SWAP2 SWAP1 POP JUMP JUMPDEST PUSH1 0x0 PUSH8 0xFFFFFFFFFFFFFFFF DUP3 GT ISZERO PUSH3 0x249 JUMPI PUSH3 0x248 PUSH3 0x303 JUMP JUMPDEST JUMPDEST PUSH1 0x1F NOT PUSH1 0x1F DUP4 ADD AND SWAP1 POP PUSH1 0x20 DUP2 ADD SWAP1 POP SWAP2 SWAP1 POP JUMP JUMPDEST PUSH1 0x0 DUP2 SWAP1 POP SWAP2 SWAP1 POP JUMP JUMPDEST PUSH1 0x0 JUMPDEST DUP4 DUP2 LT ISZERO PUSH3 0x288 JUMPI DUP1 DUP3 ADD MLOAD DUP2 DUP5 ADD MSTORE PUSH1 0x20 DUP2 ADD SWAP1 POP PUSH3 0x26B JUMP JUMPDEST DUP4 DUP2 GT ISZERO PUSH3 0x298 JUMPI PUSH1 0x0 DUP5 DUP5 ADD MSTORE JUMPDEST POP POP POP POP JUMP JUMPDEST PUSH1 0x0 PUSH1 0x2 DUP3 DIV SWAP1 POP PUSH1 0x1 DUP3 AND DUP1 PUSH3 0x2B7 JUMPI PUSH1 0x7F DUP3 AND SWAP2 POP JUMPDEST PUSH1 0x20 DUP3 LT DUP2 EQ ISZERO PUSH3 0x2CE JUMPI PUSH3 0x2CD PUSH3 0x2D4 JUMP JUMPDEST JUMPDEST POP SWAP2 SWAP1 POP JUMP JUMPDEST PUSH32 0x4E487B7100000000000000000000000000000000000000000000000000000000 PUSH1 0x0 MSTORE PUSH1 0x22 PUSH1 0x4 MSTORE PUSH1 0x24 PUSH1 0x0 REVERT JUMPDEST PUSH32 0x4E487B7100000000000000000000000000000000000000000000000000000000 PUSH1 0x0 MSTORE PUSH1 0x41 PUSH1 0x4 MSTORE PUSH1 0x24 PUSH1 0x0 REVERT JUMPDEST PUSH3 0x33D DUP2 PUSH3 0x25E JUMP JUMPDEST DUP2 EQ PUSH3 0x349 JUMPI PUSH1 0x0 DUP1 REVERT JUMPDEST POP JUMP JUMPDEST PUSH2 0x4FD DUP1 PUSH3 0x35C PUSH1 0x0 CODECOPY PUSH1 0x0 RETURN INVALID PUSH1 0x80 PUSH1 0x40 MSTORE CALLVALUE DUP1 ISZERO PUSH2 0x10 JUMPI PUSH1 0x0 DUP1 REVERT JUMPDEST POP PUSH1 0x4 CALLDATASIZE LT PUSH2 0x36 JUMPI PUSH1 0x0 CALLDATALOAD PUSH1 0xE0 SHR DUP1 PUSH4 0x6CC014DE EQ PUSH2 0x3B JUMPI DUP1 PUSH4 0xC75226EC EQ PUSH2 0x5A JUMPI JUMPDEST PUSH1 0x0 DUP1 REVERT JUMPDEST PUSH2 0x43 PUSH2 0x76 JUMP JUMPDEST PUSH1 0x40 MLOAD PUSH2 0x51 SWAP3 SWAP2 SWAP1 PUSH2 0x316 JUMP JUMPDEST PUSH1 0x40 MLOAD DUP1 SWAP2 SUB SWAP1 RETURN JUMPDEST PUSH2 0x74 PUSH1 0x4 DUP1 CALLDATASIZE SUB DUP2 ADD SWAP1 PUSH2 0x6F SWAP2 SWAP1 PUSH2 0x27A JUMP JUMPDEST PUSH2 0x110 JUMP JUMPDEST STOP JUMPDEST PUSH1 0x0 DUP1 PUSH1 0x0 ADD SLOAD SWAP1 DUP1 PUSH1 0x1 ADD DUP1 SLOAD PUSH2 0x8D SWAP1 PUSH2 0x40F JUMP JUMPDEST DUP1 PUSH1 0x1F ADD PUSH1 0x20 DUP1 SWAP2 DIV MUL PUSH1 0x20 ADD PUSH1 0x40 MLOAD SWAP1 DUP2 ADD PUSH1 0x40 MSTORE DUP1 SWAP3 SWAP2 SWAP1 DUP2 DUP2 MSTORE PUSH1 0x20 ADD DUP3 DUP1 SLOAD PUSH2 0xB9 SWAP1 PUSH2 0x40F JUMP JUMPDEST DUP1 ISZERO PUSH2 0x106 JUMPI DUP1 PUSH1 0x1F LT PUSH2 0xDB JUMPI PUSH2 0x100 DUP1 DUP4 SLOAD DIV MUL DUP4 MSTORE SWAP2 PUSH1 0x20 ADD SWAP2 PUSH2 0x106 JUMP JUMPDEST DUP3 ADD SWAP2 SWAP1 PUSH1 0x0 MSTORE PUSH1 0x20 PUSH1 0x0 KECCAK256 SWAP1 JUMPDEST DUP2 SLOAD DUP2 MSTORE SWAP1 PUSH1 0x1 ADD SWAP1 PUSH1 0x20 ADD DUP1 DUP4 GT PUSH2 0xE9 JUMPI DUP3 SWAP1 SUB PUSH1 0x1F AND DUP3 ADD SWAP2 JUMPDEST POP POP POP POP POP SWAP1 POP DUP3 JUMP JUMPDEST PUSH1 0x0 PUSH1 0x40 MLOAD DUP1 PUSH1 0x40 ADD PUSH1 0x40 MSTORE DUP1 DUP5 DUP2 MSTORE PUSH1 0x20 ADD DUP4 DUP2 MSTORE POP SWAP1 POP DUP1 PUSH1 0x0 DUP1 DUP3 ADD MLOAD DUP2 PUSH1 0x0 ADD SSTORE PUSH1 0x20 DUP3 ADD MLOAD DUP2 PUSH1 0x1 ADD SWAP1 DUP1 MLOAD SWAP1 PUSH1 0x20 ADD SWAP1 PUSH2 0x151 SWAP3 SWAP2 SWAP1 PUSH2 0x15A JUMP JUMPDEST POP SWAP1 POP POP POP POP POP JUMP JUMPDEST DUP3 DUP1 SLOAD PUSH2 0x166 SWAP1 PUSH2 0x40F JUMP JUMPDEST SWAP1 PUSH1 0x0 MSTORE PUSH1 0x20 PUSH1 0x0 KECCAK256 SWAP1 PUSH1 0x1F ADD PUSH1 0x20 SWAP1 DIV DUP2 ADD SWAP3 DUP3 PUSH2 0x188 JUMPI PUSH1 0x0 DUP6 SSTORE PUSH2 0x1CF JUMP JUMPDEST DUP3 PUSH1 0x1F LT PUSH2 0x1A1 JUMPI DUP1 MLOAD PUSH1 0xFF NOT AND DUP4 DUP1 ADD OR DUP6 SSTORE PUSH2 0x1CF JUMP JUMPDEST DUP3 DUP1 ADD PUSH1 0x1 ADD DUP6 SSTORE DUP3 ISZERO PUSH2 0x1CF JUMPI SWAP2 DUP3 ADD JUMPDEST DUP3 DUP2 GT ISZERO PUSH2 0x1CE JUMPI DUP3 MLOAD DUP3 SSTORE SWAP2 PUSH1 0x20 ADD SWAP2 SWAP1 PUSH1 0x1 ADD SWAP1 PUSH2 0x1B3 JUMP JUMPDEST JUMPDEST POP SWAP1 POP PUSH2 0x1DC SWAP2 SWAP1 PUSH2 0x1E0 JUMP JUMPDEST POP SWAP1 JUMP JUMPDEST JUMPDEST DUP1 DUP3 GT ISZERO PUSH2 0x1F9 JUMPI PUSH1 0x0 DUP2 PUSH1 0x0 SWAP1 SSTORE POP PUSH1 0x1 ADD PUSH2 0x1E1 JUMP JUMPDEST POP SWAP1 JUMP JUMPDEST PUSH1 0x0 PUSH2 0x210 PUSH2 0x20B DUP5 PUSH2 0x377 JUMP JUMPDEST PUSH2 0x346 JUMP JUMPDEST SWAP1 POP DUP3 DUP2 MSTORE PUSH1 0x20 DUP2 ADD DUP5 DUP5 DUP5 ADD GT ISZERO PUSH2 0x228 JUMPI PUSH1 0x0 DUP1 REVERT JUMPDEST PUSH2 0x233 DUP5 DUP3 DUP6 PUSH2 0x3CD JUMP JUMPDEST POP SWAP4 SWAP3 POP POP POP JUMP JUMPDEST PUSH1 0x0 DUP3 PUSH1 0x1F DUP4 ADD SLT PUSH2 0x24C JUMPI PUSH1 0x0 DUP1 REVERT JUMPDEST DUP2 CALLDATALOAD PUSH2 0x25C DUP5 DUP3 PUSH1 0x20 DUP7 ADD PUSH2 0x1FD JUMP JUMPDEST SWAP2 POP POP SWAP3 SWAP2 POP POP JUMP JUMPDEST PUSH1 0x0 DUP2 CALLDATALOAD SWAP1 POP PUSH2 0x274 DUP2 PUSH2 0x4B0 JUMP JUMPDEST SWAP3 SWAP2 POP POP JUMP JUMPDEST PUSH1 0x0 DUP1 PUSH1 0x40 DUP4 DUP6 SUB SLT ISZERO PUSH2 0x28D JUMPI PUSH1 0x0 DUP1 REVERT JUMPDEST PUSH1 0x0 PUSH2 0x29B DUP6 DUP3 DUP7 ADD PUSH2 0x265 JUMP JUMPDEST SWAP3 POP POP PUSH1 0x20 DUP4 ADD CALLDATALOAD PUSH8 0xFFFFFFFFFFFFFFFF DUP2 GT ISZERO PUSH2 0x2B8 JUMPI PUSH1 0x0 DUP1 REVERT JUMPDEST PUSH2 0x2C4 DUP6 DUP3 DUP7 ADD PUSH2 0x23B JUMP JUMPDEST SWAP2 POP POP SWAP3 POP SWAP3 SWAP1 POP JUMP JUMPDEST PUSH1 0x0 PUSH2 0x2D9 DUP3 PUSH2 0x3A7 JUMP JUMPDEST PUSH2 0x2E3 DUP2 DUP6 PUSH2 0x3B2 JUMP JUMPDEST SWAP4 POP PUSH2 0x2F3 DUP2 DUP6 PUSH1 0x20 DUP7 ADD PUSH2 0x3DC JUMP JUMPDEST PUSH2 0x2FC DUP2 PUSH2 0x49F JUMP JUMPDEST DUP5 ADD SWAP2 POP POP SWAP3 SWAP2 POP POP JUMP JUMPDEST PUSH2 0x310 DUP2 PUSH2 0x3C3 JUMP JUMPDEST DUP3 MSTORE POP POP JUMP JUMPDEST PUSH1 0x0 PUSH1 0x40 DUP3 ADD SWAP1 POP PUSH2 0x32B PUSH1 0x0 DUP4 ADD DUP6 PUSH2 0x307 JUMP JUMPDEST DUP2 DUP2 SUB PUSH1 0x20 DUP4 ADD MSTORE PUSH2 0x33D DUP2 DUP5 PUSH2 0x2CE JUMP JUMPDEST SWAP1 POP SWAP4 SWAP3 POP POP POP JUMP JUMPDEST PUSH1 0x0 PUSH1 0x40 MLOAD SWAP1 POP DUP2 DUP2 ADD DUP2 DUP2 LT PUSH8 0xFFFFFFFFFFFFFFFF DUP3 GT OR ISZERO PUSH2 0x36D JUMPI PUSH2 0x36C PUSH2 0x470 JUMP JUMPDEST JUMPDEST DUP1 PUSH1 0x40 MSTORE POP SWAP2 SWAP1 POP JUMP JUMPDEST PUSH1 0x0 PUSH8 0xFFFFFFFFFFFFFFFF DUP3 GT ISZERO PUSH2 0x392 JUMPI PUSH2 0x391 PUSH2 0x470 JUMP JUMPDEST JUMPDEST PUSH1 0x1F NOT PUSH1 0x1F DUP4 ADD AND SWAP1 POP PUSH1 0x20 DUP2 ADD SWAP1 POP SWAP2 SWAP1 POP JUMP JUMPDEST PUSH1 0x0 DUP2 MLOAD SWAP1 POP SWAP2 SWAP1 POP JUMP JUMPDEST PUSH1 0x0 DUP3 DUP3 MSTORE PUSH1 0x20 DUP3 ADD SWAP1 POP SWAP3 SWAP2 POP POP JUMP JUMPDEST PUSH1 0x0 DUP2 SWAP1 POP SWAP2 SWAP1 POP JUMP JUMPDEST DUP3 DUP2 DUP4 CALLDATACOPY PUSH1 0x0 DUP4 DUP4 ADD MSTORE POP POP POP JUMP JUMPDEST PUSH1 0x0 JUMPDEST DUP4 DUP2 LT ISZERO PUSH2 0x3FA JUMPI DUP1 DUP3 ADD MLOAD DUP2 DUP5 ADD MSTORE PUSH1 0x20 DUP2 ADD SWAP1 POP PUSH2 0x3DF JUMP JUMPDEST DUP4 DUP2 GT ISZERO PUSH2 0x409 JUMPI PUSH1 0x0 DUP5 DUP5 ADD MSTORE JUMPDEST POP POP POP POP JUMP JUMPDEST PUSH1 0x0 PUSH1 0x2 DUP3 DIV SWAP1 POP PUSH1 0x1 DUP3 AND DUP1 PUSH2 0x427 JUMPI PUSH1 0x7F DUP3 AND SWAP2 POP JUMPDEST PUSH1 0x20 DUP3 LT DUP2 EQ ISZERO PUSH2 0x43B JUMPI PUSH2 0x43A PUSH2 0x441 JUMP JUMPDEST JUMPDEST POP SWAP2 SWAP1 POP JUMP JUMPDEST PUSH32 0x4E487B7100000000000000000000000000000000000000000000000000000000 PUSH1 0x0 MSTORE PUSH1 0x22 PUSH1 0x4 MSTORE PUSH1 0x24 PUSH1 0x0 REVERT JUMPDEST PUSH32 0x4E487B7100000000000000000000000000000000000000000000000000000000 PUSH1 0x0 MSTORE PUSH1 0x41 PUSH1 0x4 MSTORE PUSH1 0x24 PUSH1 0x0 REVERT JUMPDEST PUSH1 0x0 PUSH1 0x1F NOT PUSH1 0x1F DUP4 ADD AND SWAP1 POP SWAP2 SWAP1 POP JUMP JUMPDEST PUSH2 0x4B9 DUP2 PUSH2 0x3C3 JUMP JUMPDEST DUP2 EQ PUSH2 0x4C4 JUMPI PUSH1 0x0 DUP1 REVERT JUMPDEST POP JUMP INVALID LOG2 PUSH5 0x6970667358 0x22 SLT KECCAK256 0xDE PUSH32 0x8F65F06A5F15DEF8B207CAC3F34F8267A9E52E2AD233EA243E0C094CC1B6473 PUSH16 0x6C634300080000330000000000000000 "
				},
				"gasEstimates": {
					"creation": {
						"codeDepositCost": "255400",
						"executionCost": "infinite",
						"totalCost": "infinite"
					},
					"external": {
						"change(uint256,string)": "infinite",
						"s1()": "infinite"
					}
				},
				"methodIdentifiers": {
					"change(uint256,string)": "c75226ec",
					"s1()": "6cc014de"
				}
			},
			"storageLayout": {
				"storage": [
					{
						"astId": 9,
						"contract": "Struct.sol:structure",
						"label": "s1",
						"offset": 0,
						"slot": "0",
						"type": "t_struct(student)6_storage"
					}
				],
				"types": {
					"t_string_storage": {
						"encoding": "bytes",
						"label": "string",
						"numberOfBytes": "32"
					},
					"t_struct(student)6_storage": {
						"encoding": "inplace",
						"label": "struct student",
						"members": [
							{
								"astId": 3,
								"contract": "Struct.sol:structure",
								"label": "roll",
								"offset": 0,
								"slot": "0",
								"type": "t_uint256"
							},
							{
								"astId": 5,
								"contract": "Struct.sol:structure",
								"label": "name",
								"offset": 0,
								"slot": "1",
								"type": "t_string_storage"
							}
						],
						"numberOfBytes": "64"
					},
					"t_uint256": {
						"encoding": "inplace",
						"label": "uint256",
						"numberOfBytes": "32"
					}
				}
			},
			"userdoc": {
				"kind": "user",
				"methods": {},
				"version": 1
			}
		}
	}
}