{
	"data": {
		"bytecode": {
			"linkReferences": {},
			"object": "608060405261001261003860201b60201c565b60005561002361004160201b60201c565b60015534801561003257600080fd5b5061004a565b60006001905090565b60006003905090565b610151806100596000396000f3fe608060405234801561001057600080fd5b506004361061004c5760003560e01c806381f5c0251461005157806390be565e1461006f578063c27fc3051461008d578063c3f90202146100ab575b600080fd5b6100596100c9565b6040516100669190610100565b60405180910390f35b6100776100cf565b6040516100849190610100565b60405180910390f35b6100956100d5565b6040516100a29190610100565b60405180910390f35b6100b36100de565b6040516100c09190610100565b60405180910390f35b60015481565b60005481565b60006001905090565b60006004905090565b6000819050919050565b6100fa816100e7565b82525050565b600060208201905061011560008301846100f1565b9291505056fea2646970667358221220f57df8dce6edc1ba1cfcfd143f7026d20f60145ec67e93621aad043724ee975a64736f6c63430008120033",
			"opcodes": "PUSH1 0x80 PUSH1 0x40 MSTORE PUSH2 0x12 PUSH2 0x38 PUSH1 0x20 SHL PUSH1 0x20 SHR JUMP JUMPDEST PUSH1 0x0 SSTORE PUSH2 0x23 PUSH2 0x41 PUSH1 0x20 SHL PUSH1 0x20 SHR JUMP JUMPDEST PUSH1 0x1 SSTORE CALLVALUE DUP1 ISZERO PUSH2 0x32 JUMPI PUSH1 0x0 DUP1 REVERT JUMPDEST POP PUSH2 0x4A JUMP JUMPDEST PUSH1 0x0 PUSH1 0x1 SWAP1 POP SWAP1 JUMP JUMPDEST PUSH1 0x0 PUSH1 0x3 SWAP1 POP SWAP1 JUMP JUMPDEST PUSH2 0x151 DUP1 PUSH2 0x59 PUSH1 0x0 CODECOPY PUSH1 0x0 RETURN INVALID PUSH1 0x80 PUSH1 0x40 MSTORE CALLVALUE DUP1 ISZERO PUSH2 0x10 JUMPI PUSH1 0x0 DUP1 REVERT JUMPDEST POP PUSH1 0x4 CALLDATASIZE LT PUSH2 0x4C JUMPI PUSH1 0x0 CALLDATALOAD PUSH1 0xE0 SHR DUP1 PUSH4 0x81F5C025 EQ PUSH2 0x51 JUMPI DUP1 PUSH4 0x90BE565E EQ PUSH2 0x6F JUMPI DUP1 PUSH4 0xC27FC305 EQ PUSH2 0x8D JUMPI DUP1 PUSH4 0xC3F90202 EQ PUSH2 0xAB JUMPI JUMPDEST PUSH1 0x0 DUP1 REVERT JUMPDEST PUSH2 0x59 PUSH2 0xC9 JUMP JUMPDEST PUSH1 0x40 MLOAD PUSH2 0x66 SWAP2 SWAP1 PUSH2 0x100 JUMP JUMPDEST PUSH1 0x40 MLOAD DUP1 SWAP2 SUB SWAP1 RETURN JUMPDEST PUSH2 0x77 PUSH2 0xCF JUMP JUMPDEST PUSH1 0x40 MLOAD PUSH2 0x84 SWAP2 SWAP1 PUSH2 0x100 JUMP JUMPDEST PUSH1 0x40 MLOAD DUP1 SWAP2 SUB SWAP1 RETURN JUMPDEST PUSH2 0x95 PUSH2 0xD5 JUMP JUMPDEST PUSH1 0x40 MLOAD PUSH2 0xA2 SWAP2 SWAP1 PUSH2 0x100 JUMP JUMPDEST PUSH1 0x40 MLOAD DUP1 SWAP2 SUB SWAP1 RETURN JUMPDEST PUSH2 0xB3 PUSH2 0xDE JUMP JUMPDEST PUSH1 0x40 MLOAD PUSH2 0xC0 SWAP2 SWAP1 PUSH2 0x100 JUMP JUMPDEST PUSH1 0x40 MLOAD DUP1 SWAP2 SUB SWAP1 RETURN JUMPDEST PUSH1 0x1 SLOAD DUP2 JUMP JUMPDEST PUSH1 0x0 SLOAD DUP2 JUMP JUMPDEST PUSH1 0x0 PUSH1 0x1 SWAP1 POP SWAP1 JUMP JUMPDEST PUSH1 0x0 PUSH1 0x4 SWAP1 POP SWAP1 JUMP JUMPDEST PUSH1 0x0 DUP2 SWAP1 POP SWAP2 SWAP1 POP JUMP JUMPDEST PUSH2 0xFA DUP2 PUSH2 0xE7 JUMP JUMPDEST DUP3 MSTORE POP POP JUMP JUMPDEST PUSH1 0x0 PUSH1 0x20 DUP3 ADD SWAP1 POP PUSH2 0x115 PUSH1 0x0 DUP4 ADD DUP5 PUSH2 0xF1 JUMP JUMPDEST SWAP3 SWAP2 POP POP JUMP INVALID LOG2 PUSH5 0x6970667358 0x22 SLT KECCAK256 CREATE2 PUSH30 0xF8DCE6EDC1BA1CFCFD143F7026D20F60145EC67E93621AAD043724EE975A PUSH5 0x736F6C6343 STOP ADDMOD SLT STOP CALLER "
		},
		"gasEstimates": {
			"creation": {
				"codeDepositCost": "67400",
				"executionCost": "infinite",
				"totalCost": "infinite"
			},
			"external": {
				"bx()": "2429",
				"bx2()": "2407",
				"f1()": "359",
				"f4()": "381"
			}
		},
		"methodIdentifiers": {
			"bx()": "90be565e",
			"bx2()": "81f5c025",
			"f1()": "c27fc305",
			"f4()": "c3f90202"
		}
	},
	"abi": [
		{
			"inputs": [],
			"name": "bx",
			"outputs": [
				{
					"internalType": "uint256",
					"name": "",
					"type": "uint256"
				}
			],
			"stateMutability": "view",
			"type": "function"
		},
		{
			"inputs": [],
			"name": "bx2",
			"outputs": [
				{
					"internalType": "uint256",
					"name": "",
					"type": "uint256"
				}
			],
			"stateMutability": "view",
			"type": "function"
		},
		{
			"inputs": [],
			"name": "f1",
			"outputs": [
				{
					"internalType": "uint256",
					"name": "",
					"type": "uint256"
				}
			],
			"stateMutability": "pure",
			"type": "function"
		},
		{
			"inputs": [],
			"name": "f4",
			"outputs": [
				{
					"internalType": "uint256",
					"name": "",
					"type": "uint256"
				}
			],
			"stateMutability": "pure",
			"type": "function"
		}
	]
}